:020000040000FA
:0600000024EF3BF01200AA
:06000800DAEF39F01200EE
:060018003AEF3AF012007D
:06002A00030067760000F0
:10003000000E0000A500000062760000E90E00003E
:100040000500000060760000EE0E000002000000D7
:10005000D9CFE6FFE1CFD9FF0E0EE126DF6A020E0F
:10006000DF5C1AE2DF50160DF3CFE9FFF4CFEAFFB1
:10007000A50EE9260E0EEA22140EE926000EEA224B
:10008000EF50010B01E108D0DF0404E1F36AF46AE8
:1000900036EF05F0DF2AE3D7D9500B0FE66E000EDE
:1000A000DA20E66ED950030FE66E000EDA20E66E17
:1000B000DF50160DF3CFE9FFF4CFEAFFA50EE926D6
:1000C0000E0EEA22040EE926000EEA22E9CF18F00D
:1000D000EACF19F018C0E6FF19C0E6FFDF50160D91
:1000E000F3CFE9FFF4CFEAFFA50EE9260E0EEA22D0
:1000F000E9CF1AF0EACF1BF01AC0E6FF1BC0E6FFFB
:10010000D950010FE66E000EDA20E66EDF50160DB4
:10011000F3CFE9FFF4CFEAFFA50EE9260E0EEA229F
:10012000100EE926000EEA22E9CF1CF0EACF1DF0FE
:100130001CC0E6FF1DC0E6FFFD0EDBCFE6FFFE0E96
:10014000DBCFE6FFBFEC19F01E6E0E0EE15E1E5017
:1001500006C014F007C015F008C016F009C017F06B
:10016000DF50160DF3CFE9FFF4CFEAFFA50EE92625
:100170000E0EEA22050EE926000EEA2214C0EEFF5A
:1001800015C0EEFF16C0EEFF17C0EEFFDF50160DD4
:10019000F3CFE9FFF4CFEAFFA50EE9260E0EEA221F
:1001A000050EE926000EEA22E868EE1808E1E86884
:1001B000EE1805E1E868EE1802E1E868EE1872E072
:1001C000020EDB6AF36EDBCFF4FFF350F45C6AE2FD
:1001D000020EDB50160DF3CFE9FFF4CFEAFFA50EB8
:1001E000E9260E0EEA22140EE926000EEA22EF504E
:1001F000010B55E0DF50F36E020EDB50F35C4FE075
:10020000020EDB50160DF3CFE9FFF4CFEAFFA50E87
:10021000E9260E0EEA22EECF14F0EECF15F0EECF67
:1002200016F0EFCF17F0DF50160DF3CFE9FFF4CF44
:10023000EAFFA50EE9260E0EEA221450EE1809E197
:100240001550EE1806E11650EE1803E11750EE189F
:1002500000E125E1020EDB50160DF3CFE9FFF4CFEC
:10026000EAFFA50EE9260E0EEA22040EE926000E8C
:10027000EA22EFCF18F0DF50160DF3CFE9FFF4CFED
:10028000EAFFA50EE9260E0EEA22040EE926000E6C
:10029000EA22EF50185C03E1F36AF46AE7D3020E36
:1002A000DB2A90D7DF50160DF3CFE9FFF4CFEAFF3A
:1002B000A50EE9260E0EEA22050EE926000EEA2218
:1002C000E868EE1808E1E868EE1805E1E868EE185D
:1002D00002E1E868EE180CE1FB0EDBCFE9FFFC0E53
:1002E000DBCFEAFFEF50720803E1F36AF46ABED392
:1002F000DF50160DF3CFE9FFF4CFEAFFA50EE92694
:100300000E0EEA22050EE926000EEA22E868EE1833
:1003100008E1E868EE1805E1E868EE1802E1E8682F
:10032000EE1825E0FB0EDBCFE9FFFC0EDBCFEAFF8A
:10033000EF5077081CE1FD0EDBCFE6FFFE0EDBCFB2
:10034000E6FF3EEC15F0E552E552DF50160DF3CF17
:10035000E9FFF4CFEAFFA50EE9260E0EEA22050E0C
:10036000E926000EEA22EE68EE68EE68EE68DF50DD
:10037000160DF3CFE9FFF4CFEAFFA50EE9260E0E26
:10038000EA22050EE926000EEA22E868EE1808E1E6
:10039000E868EE1805E1E868EE1802E1E868EE1892
:1003A00061E1DF50160DF3CFE9FFF4CFEAFFA50EB0
:1003B000E9260E0EEA22040EE926000EEA22E9CF13
:1003C00014F0EACF15F014C0E6FF15C0E6FFDF50C9
:1003D000160DF3CFE9FFF4CFEAFFA50EE9260E0EC6
:1003E000EA22E9CF16F0EACF17F016C0E6FF17C0F1
:1003F000E6FFDF50160DF3CFE9FFF4CFEAFFA50EBD
:10040000E9260E0EEA22050EE926000EEA22E9CFC1
:1004100018F0EACF19F018C0E6FF19C0E6FFFD0E8C
:10042000DBCFE6FFFE0EDBCFE6FF5BEC25F01A6EBE
:10043000080EE15E1A50000903E1F36AF46A16D36C
:10044000DF50160DF3CFE9FFF4CFEAFFA50EE92642
:100450000E0EEA22100EE926000EEA22EE6AEE6A7D
:10046000EE6AEE6ADF50160DF3CFE9FFF4CFEAFF34
:10047000A50EE9260E0EEA22140EE926000EEA2247
:10048000EF80DF50160DF3CFE9FFF4CFEAFFA50EA2
:10049000E9260E0EEA22140EE926000EEA22EF9A51
:1004A000DF50160DF3CFE9FFF4CFEAFFA50EE926E2
:1004B0000E0EEA22140EE926000EEA22EF9CDF500F
:1004C000160DF3CFE9FFF4CFEAFFA50EE9260E0ED5
:1004D000EA22140EE926000EEA22EF9EFB0EDBCF85
:1004E000E9FFFC0EDBCFEAFFEF50720801E0C8D055
:1004F000010EE76EFB0EDBCFE9FFFC0EDBCFEAFF60
:10050000E750E926000EEA22EF502B081DE0010E0D
:10051000E76EFB0EDBCFE9FFFC0EDBCFEAFFE75017
:10052000E926000EEA22EF503DE0020EE76EFB0ED8
:10053000DBCFE9FFFC0EDBCFEAFFE750E926000E38
:10054000EA22EF502B082EE1DF50160DF3CFE9FF22
:10055000F4CFEAFFA50EE9260E0EEA22140EE926D4
:10056000000EEA22EF82DF50160DF3CFE9FFF4CF41
:10057000EAFFA50EE9260E0EEA22140EE926000E69
:10058000EA22EF84DF50160DF3CFE9FFF4CFEAFF44
:10059000A50EE9260E0EEA22140EE926000EEA2226
:1005A000EF962DD0DF50160DF3CFE9FFF4CFEAFF21
:1005B000A50EE9260E0EEA22140EE926000EEA2206
:1005C000EF82DF50160DF3CFE9FFF4CFEAFFA50E5F
:1005D000E9260E0EEA22140EE926000EEA22EF9416
:1005E000DF50160DF3CFE9FFF4CFEAFFA50EE926A1
:1005F0000E0EEA22140EE926000EEA22EF96DF50D4
:10060000160DF3CFE9FFF4CFEAFFA50EE9260E0E93
:10061000EA22090EE926000EEA22EF6ADF50160DE3
:10062000F3CFE9FFF4CFEAFFA50EE9260E0EEA228A
:100630000A0EE926000EEA22EE6AED6ADF50160D78
:10064000F3CFE9FFF4CFEAFFA50EE9260E0EEA226A
:100650000C0EE926000EEA22EE6AEE6AEE6AEE6AF7
:10066000DF50160DF3CFE9FFF4CFEAFFA50EE92620
:100670000E0EEA22140EE926000EEA22EF98E7D1C8
:10068000FB0EDBCFE9FFFC0EDBCFEAFFEF50770874
:1006900001E0C8D0010EE76EFB0EDBCFE9FFFC0ED8
:1006A000DBCFEAFFE750E926000EEA22EF502B08E5
:1006B0001DE0010EE76EFB0EDBCFE9FFFC0EDBCF8A
:1006C000EAFFE750E926000EEA22EF503DE0020E75
:1006D000E76EFB0EDBCFE9FFFC0EDBCFEAFFE75056
:1006E000E926000EEA22EF502B082EE1DF50160D0E
:1006F000F3CFE9FFF4CFEAFFA50EE9260E0EEA22BA
:10070000140EE926000EEA22EF82DF50160DF3CF19
:10071000E9FFF4CFEAFFA50EE9260E0EEA22140E39
:10072000E926000EEA22EF84DF50160DF3CFE9FF31
:10073000F4CFEAFFA50EE9260E0EEA22140EE926F2
:10074000000EEA22EF962DD0DF50160DF3CFE9FF11
:10075000F4CFEAFFA50EE9260E0EEA22140EE926D2
:10076000000EEA22EF92DF50160DF3CFE9FFF4CF2F
:10077000EAFFA50EE9260E0EEA22140EE926000E67
:10078000EA22EF84DF50160DF3CFE9FFF4CFEAFF42
:10079000A50EE9260E0EEA22140EE926000EEA2224
:1007A000EF96DF50160DF3CFE9FFF4CFEAFFA50E69
:1007B000E9260E0EEA22090EE926000EEA22EF6A69
:1007C000DF50160DF3CFE9FFF4CFEAFFA50EE926BF
:1007D0000E0EEA220A0EE926000EEA22EE6AED6A01
:1007E000DF50160DF3CFE9FFF4CFEAFFA50EE9269F
:1007F0000E0EEA220C0EE926000EEA22EE6AEE6ADE
:10080000EE6AEE6ADF50160DF3CFE9FFF4CFEAFF90
:10081000A50EE9260E0EEA22140EE926000EEA22A3
:10082000EF9815D1FB0EDBCFE9FFFC0EDBCFEAFF23
:10083000EF50610801E00BD1010EE76EFB0EDBCF3C
:10084000E9FFFC0EDBCFEAFFE750E926000EEA22C3
:10085000EF502B081DE0010EE76EFB0EDBCFE9FF2A
:10086000FC0EDBCFEAFFE750E926000EEA22EF504C
:100870003DE0020EE76EFB0EDBCFE9FFFC0EDBCFA7
:10088000EAFFE750E926000EEA22EF502B082EE19E
:10089000DF50160DF3CFE9FFF4CFEAFFA50EE926EE
:1008A0000E0EEA22140EE926000EEA22EF82DF5035
:1008B000160DF3CFE9FFF4CFEAFFA50EE9260E0EE1
:1008C000EA22140EE926000EEA22EF84DF50160D0C
:1008D000F3CFE9FFF4CFEAFFA50EE9260E0EEA22D8
:1008E000140EE926000EEA22EF862DD0DF50160DF9
:1008F000F3CFE9FFF4CFEAFFA50EE9260E0EEA22B8
:10090000140EE926000EEA22EF92DF50160DF3CF07
:10091000E9FFF4CFEAFFA50EE9260E0EEA22140E37
:10092000E926000EEA22EF84DF50160DF3CFE9FF2F
:10093000F4CFEAFFA50EE9260E0EEA22140EE926F0
:10094000000EEA22EF86DF50160DF3CFE9FFF4CF59
:10095000EAFFA50EE9260E0EEA22090EE926000E90
:10096000EA22EF6ADF50160DF3CFE9FFF4CFEAFF7A
:10097000A50EE9260E0EEA220A0EE926000EEA224C
:10098000EE6AED6ADF50160DF3CFE9FFF4CFEAFF10
:10099000A50EE9260E0EEA220C0EE926000EEA222A
:1009A000EE6AEE6AEE6AEE6ADF50160DF3CFE9FFEB
:1009B000F4CFEAFFA50EE9260E0EEA22140EE92670
:1009C000000EEA22EF98020EE66EE66AE66AE66A32
:1009D000E66AE66ADF50160DF3CF14F0F4CF15F097
:1009E000A50E14260E0E152214C0E6FF15C0E6FF54
:1009F00047D8166E080EE15E1650DF50160DF3CF85
:100A0000E9FFF4CFEAFFA50EE9260E0EEA22100E4A
:100A1000E926000EEA22EECF14F0EECF15F0EECF6D
:100A200016F0EFCF17F014501510161017100FE036
:100A3000DF50160DF3CFE9FFF4CFEAFFA50EE9264C
:100A40000E0EEA22140EE926000EEA22EF88DF508D
:100A5000160DF3CF14F0F4CF15F0A50E14260E0EDC
:100A6000152214C0F3FF15C0F4FF00D00E0EE15C98
:100A700002E2E16AE552E16EE552E7CFD9FF1200EA
:100A8000D9CFE6FFE1CFD9FF0D0EE1260001985145
:100A9000166E176A16C008F017C009F0D1CE0DF017
:100AA000D2CE0EF0F8EC3AF006C014F007C015F004
:100AB000080E14C0DBFF090E15C0DBFF0A0EDB6A4F
:100AC0000B0EDB6AFD0EDBCFE9FFFE0EDBCFEAFF8C
:100AD000140EE926000EEA22EF50010B05E1010E8B
:100AE000F36EF46AA6EF0BF0D950F70FE96EFF0E24
:100AF000DA20EA6EEE50ED1047E1D950F90FE96EB9
:100B0000FF0EDA20EA6ED890030EEB50000A08E6DA
:100B1000000EEE5C000EEE58000EEE58000EEE5881
:100B200006E2010EF36EF46AA6EF0BF02CD0F90E7C
:100B3000DBCF14F0FA0EDBCF15F0FB0EDBCF16F097
:100B4000FC0EDBCF17F0145015101610171009E12A
:100B5000040EDB6A050EDB6A060EDB6A070EDB6A33
:100B600012D0D950F90FE96EFF0EDA20EA6E040EAA
:100B7000EECFDBFF050EEECFDBFF060EEECFDBFF89
:100B8000070EEECFDBFF13D1D950F70FE96EFF0E42
:100B9000DA20EA6E010EEE1801E1ED5075E1FD0E6E
:100BA000DBCFE9FFFE0EDBCFEAFF0C0EE926000EDD
:100BB000EA22040EEECFDBFF050EEECFDBFF060EC2
:100BC000EECFDBFF070EEECFDBFFFD0EDBCFE9FF45
:100BD000FE0EDBCFEAFF140EE926000EEA22EF50EC
:100BE000100B0AE0D950040FE96EDACFEAFFEE2AC3
:100BF000000EEE22EE22EE22D950F90FE96EFF0E22
:100C0000DA20EA6ED890030EEB50000A08E6000ED8
:100C1000EE5C000EEE58000EEE58000EEE5822E28A
:100C2000F90EDBCF14F0FA0EDBCF15F0FB0EDBCFA5
:100C300016F0FC0EDBCF17F0000E146C151E1522FB
:100C4000161E1622171E1722D950040FE96EDACF8E
:100C5000EAFF1450EE5E1550EE5A1650EE5A175039
:100C6000EE5A11D0D950040FE96EDACFEAFFF90E2F
:100C7000DB50EE26FA0EDB50EE22FB0EDB50EE22AE
:100C8000FC0EDB50EE2293D0D950F70FE96EFF0E29
:100C9000DA20EA6E020EEE1801E1ED5001E082D09A
:100CA000F90EDBCF07F0FA0EDBCF08F0FB0EDBCF3F
:100CB00009F0FC0EDBCF0AF00A34000E0A1809E630
:100CC000D880010E0754000E0854000E0954000E7F
:100CD0000A5406E2010EF36EF46AA6EF0BF061D03F
:100CE000D950F90FE96EFF0EDA20EA6E010EEE1808
:100CF00005E1EE5003E1EE5001E1EE5017E1FD0E8B
:100D0000DBCFE9FFFE0EDBCFEAFF100EE926000E77
:100D1000EA22040EEECFDBFF050EEECFDBFF060E60
:100D2000EECFDBFF070EEECFDBFF3BD0F90EDBCFC4
:100D300018F0FA0EDBCF19F0FB0EDBCF1AF0FC0E29
:100D4000DBCF1BF0000E186C191E19221A1E1A2276
:100D50001B1E1B22FD0EDBCFE9FFFE0EDBCFEAFFE1
:100D6000100EE926000EEA221850EE5C146E19509F
:100D7000EE58156E1A50EE58166E1B50EE58176E40
:100D80001406000E155A165A175A040E14C0DBFF2B
:100D9000050E15C0DBFF060E16C0DBFF070E17C0E1
:100DA000DBFF05D0010EF36EF46AA6EF0BF0040E24
:100DB000DBCF14F0050EDBCF15F0060EDBCF16F0FF
:100DC000070EDBCF17F0FD0EDBCFE9FFFE0EDBCF0A
:100DD000EAFF100EE926000EEA221450EE5C1550D0
:100DE000EE581650EE581750EE5806E2010EF36E0C
:100DF000F46AA6EF0BF061D0040EDBCF14F0050E01
:100E0000DBCF15F0060EDBCF16F0070EDBCF17F0A9
:100E1000FD0EDBCFE9FFFE0EDBCFEAFF100EE92669
:100E2000000EEA221450EE1809E11550EE1806E102
:100E30001650EE1803E11750EE1800E133E1040EEE
:100E4000DBCF14F0050EDBCF15F0060EDBCF16F06E
:100E5000070EDBCF17F0145015101610171016E000
:100E6000D950040FE96EDACFEAFFEE06000EEE5A13
:100E7000EE5AEE5AFD0EDBCFE9FFFE0EDBCFEAFFA6
:100E8000140EE926000EEA22EF880BD0FD0EDBCF10
:100E9000E9FFFE0EDBCFEAFF140EE926000EEA2280
:100EA000EF980BD0FD0EDBCFE9FFFE0EDBCFEAFFA4
:100EB000140EE926000EEA22EF98040EDBCF14F0A0
:100EC000050EDBCF15F0060EDBCF16F0070EDBCFDD
:100ED00017F0145015101610171048E1FD0EDBCF57
:100EE000E6FFFE0EDBCFE6FF5DEC24F0E552E552B7
:100EF00006C014F007C015F008C016F009C017F0BE
:100F0000FD0EDBCFE9FFFE0EDBCFEAFF050EE92683
:100F1000000EEA2214C0EEFF15C0EEFF16C0EEFF71
:100F200017C0EEFFFD0EDBCFE9FFFE0EDBCFEAFFC1
:100F3000090EE926000EEA22EF6AFD0EDBCFE9FF7B
:100F4000FE0EDBCFEAFF0A0EEB6A0B0EEB6AFD0E1C
:100F5000DBCFE9FFFE0EDBCFEAFF0C0EE926000E29
:100F6000EA22EE6AEE6AEE6AEE6AE2D3040EDBCFA4
:100F700014F0050EDBCF15F0060EDBCF16F0070ED2
:100F8000DBCF17F0FD0EDBCFE9FFFE0EDBCFEAFF74
:100F90000C0EE926000EEA221450EE1809E1155055
:100FA000EE1806E11650EE1803E11750EE1800E1B6
:100FB00003E10C0EDB6AD2D2040EDBCF14F0050E77
:100FC000DBCF15F0060EDBCF16F0070EDBCF17F0E8
:100FD000FD0EDBCFE9FFFE0EDBCFEAFF0C0EE926AC
:100FE000000EEA22EE50145CEE501558EE501658E2
:100FF000EE50175801E34DD1040EDBCF18F0050E6B
:10100000DBCF19F0060EDBCF1AF0070EDBCF1BF09B
:10101000FD0EDBCFE9FFFE0EDBCFEAFF0C0EE9266B
:10102000000EEA221850EE5C146E1950EE58156E40
:101030001A50EE58166E1B50EE58176EFD0EDBCF91
:10104000E9FFFE0EDBCFEAFF0A0EE926000EEA22D8
:10105000EECF20F0EFCF21F0FD0EDBCFE9FFFE0E4B
:10106000DBCFEAFF090EE926000EEA22EF50226EDE
:10107000236A22C008F023C009F0D1CE0DF0D2CEF1
:101080000EF0F8EC3AF0205006241C6E2150072098
:101090001D6E1E6A1F6A1C50145C1D5015581E5090
:1010A00016581F50175801E3EED00C0EDB6AD9CF4B
:1010B000E9FFDACFEAFF040EDBCFEEFF050EDBCF50
:1010C000EEFF060EDBCFEEFF070EDBCFEEFF040ECA
:1010D000DBCF18F0050EDBCF19F0060EDBCF1AF0D0
:1010E000070EDBCF1BF0FD0EDBCFE9FFFE0EDBCFE3
:1010F000EAFF0C0EE926000EEA221850EE5C146E90
:101100001950EE58156E1A50EE58166E1B50EE58C8
:10111000176E040E14C0DBFF050E15C0DBFF060EB4
:1011200016C0DBFF070E17C0DBFFFD0EDBCFE9FFAC
:10113000FE0EDBCFEAFF0C0EE926000EEA22DFCF1F
:10114000EEFF010EDBCFEEFF020EDBCFEEFF030E54
:10115000DBCFEEFFD1CE14F0D2CE15F0166A176AAF
:10116000D950040FE96EDACFEAFF1450EE5C155047
:10117000EE581650EE581750EE5831E3D1CE14F019
:10118000D2CE15F0166A176AD950040FE96EDACF7D
:10119000EAFF1450EE5E1550EE5A1650EE5A1750F4
:1011A000EE5AFD0EDBCFE9FFFE0EDBCFEAFF090EA4
:1011B000E926000EEA22EF500CE0FD0EDBCFE9FF3E
:1011C000FE0EDBCFEAFF090EE926000EEA22EF064B
:1011D00005D0010EF36E0C0EF3CFDBFFBBD7040E70
:1011E000DBCF14F0050EDBCF15F0FD0EDBCFE9FFF2
:1011F000FE0EDBCFEAFF0A0EE926000EEA221450AB
:10120000EE5E1550ED5AFD0EDBCFE9FFFE0EDBCF93
:10121000EAFF0A0EE926000EEA22EECF14F0EFCF25
:1012200015F00E01D151145CD25115582BE3FD0E6F
:10123000DBCFE9FFFE0EDBCFEAFF0A0EE926000E48
:10124000EA22D151EE26D251ED22FD0EDBCFE9FF8D
:10125000FE0EDBCFEAFF090EE926000EEA22EF5070
:101260000CE0FD0EDBCFE9FFFE0EDBCFEAFF090E3F
:10127000E926000EEA22EF0605D0010EF36E0C0EF1
:10128000F3CFDBFF05D0010EF36E0C0EF3CFDBFFC7
:1012900065D1040EDBCF18F0050EDBCF19F0060E7A
:1012A000DBCF1AF0070EDBCF1BF0FD0EDBCFE9FF23
:1012B000FE0EDBCFEAFF0C0EE926000EEA22EE500E
:1012C000185C146EEE501958156EEE501A58166EC2
:1012D000EE501B58176EFD0EDBCFE9FFFE0EDBCF85
:1012E000EAFF0A0EE926000EEA22EECF24F0EFCF45
:1012F00025F0FD0EDBCFE9FFFE0EDBCFEAFF090E86
:10130000E926000EEA22EF50266E276A26C008F072
:1013100027C009F0D1CE0DF0D2CE0EF0F8EC3AF0A5
:1013200024500624206E25500720216E226A236A4D
:10133000D950080FE96EDACFEAFF2050EE5C1C6E40
:101340002150EE581D6E2250EE581E6E2350EE585E
:101350001F6E1C50145C1D5015581E5016581F50FF
:10136000175801E3F6D00C0EDB6AD9CFE9FFDACFCC
:10137000EAFF040EDBCFEEFF050EDBCFEEFF060E1D
:10138000DBCFEEFF070EDBCFEEFF040EDBCF18F056
:10139000050EDBCF19F0060EDBCF1AF0070EDBCF00
:1013A0001BF0FD0EDBCFE9FFFE0EDBCFEAFF0C0EDC
:1013B000E926000EEA22EE50185C146EEE50195821
:1013C000156EEE501A58166EEE501B58176E040E1E
:1013D00014C0DBFF050E15C0DBFF060E16C0DBFFD9
:1013E000070E17C0DBFFFD0EDBCFE9FFFE0EDBCFE4
:1013F000EAFF0C0EE926000EEA22DFCFEEFF010E17
:10140000DBCFEEFF020EDBCFEEFF030EDBCFEEFFF6
:10141000D1CE14F0D2CE15F0166A176AD950040F47
:10142000E96EDACFEAFF1450EE5C1550EE58165014
:10143000EE581750EE5835E3D1CE14F0D2CE15F059
:10144000166A176AD950040FE96EDACFEAFF145012
:10145000EE5E1550EE5A1650EE5A1750EE5AFD0E2B
:10146000DBCFE9FFFE0EDBCFEAFF090EE926000E17
:10147000EA22EFCF14F000019851145C0CE2FD0E4B
:10148000DBCFE9FFFE0EDBCFEAFF090EE926000EF7
:10149000EA22EF2A05D0010EF36E0C0EF3CFDBFF2C
:1014A000B7D7040EDBCF14F0050EDBCF15F0FD0E21
:1014B000DBCFE9FFFE0EDBCFEAFF0A0EE926000EC6
:1014C000EA221450EE261550ED22FD0EDBCFE9FF87
:1014D000FE0EDBCFEAFF0A0EE926000EEA22EECF6F
:1014E00014F0EFCF15F00E01D151145CD251155804
:1014F0002FE3FD0EDBCFE9FFFE0EDBCFEAFF0A0E86
:10150000E926000EEA22D151EE5ED251ED5AFD0ECF
:10151000DBCFE9FFFE0EDBCFEAFF090EE926000E66
:10152000EA22EFCF14F000019851145C0CE2FD0E9A
:10153000DBCFE9FFFE0EDBCFEAFF090EE926000E46
:10154000EA22EF2A05D0010EF36E0C0EF3CFDBFF7B
:1015500005D0010EF36E0C0EF3CFDBFF0C0EDB504B
:1015600001E1E6D0FD0EDBCFE6FFFE0EDBCFE6FFAE
:101570005DEC24F0E552E55206C014F007C015F00A
:1015800008C016F009C017F0FD0EDBCFE9FFFE0E14
:10159000DBCFEAFF050EE926000EEA2214C0EEFFBB
:1015A00015C0EEFF16C0EEFF17C0EEFFFD0EDBCF3D
:1015B000E9FFFE0EDBCFEAFF090EE926000EEA2264
:1015C000EF6AFD0EDBCFE9FFFE0EDBCFEAFF0C0E6C
:1015D000E926000EEA22040EDBCFEEFF050EDBCF7C
:1015E000EEFF060EDBCFEEFF070EDBCFEEFF080EA1
:1015F000DBCF14F0090EDBCF15F00A0EDBCF16F0AF
:101600000B0EDBCF17F0D950040FE96EDACFEAFFEB
:101610001450EE5C1550EE581650EE581750EE5818
:1016200044E3D950040FE96EDACFEAFF080EDB502D
:10163000EE5E090EDB50EE5A0A0EDB50EE5A0B0E30
:10164000DB50EE5AFD0EDBCFE9FFFE0EDBCFEAFFEB
:10165000050EE926000EEA22EECFE6FFEECFE6FF0A
:10166000EECFE6FFEFCFE6FFF6EC28F0E552E552CD
:10167000E552E55206C014F007C015F008C016F098
:1016800009C017F0FD0EDBCFE9FFFE0EDBCFEAFF4E
:10169000050EE926000EEA2214C0EEFF15C0EEFF8B
:1016A00016C0EEFF17C0EEFFA2D7D1CE14F0D2CEF7
:1016B00015F0166A176AD950040FE96EDACFEAFFFF
:1016C0001450EE5C1550EE581650EE581750EE5868
:1016D0001FE3D1CE14F0D2CE15F0166A176AD95096
:1016E000040FE96EDACFEAFF1450EE5E1550EE5AA1
:1016F0001650EE5A1750EE5AFD0EDBCFE9FFFE0EE4
:10170000DBCFEAFF090EE926000EEA22EF2ACDD749
:10171000FD0EDBCFE9FFFE0EDBCFEAFF0A0EE92666
:10172000000EEA22040EDBCFEEFF050EDBCFEDFF4D
:10173000FD0EDBCFE9FFFE0EDBCFEAFF140EE9263C
:10174000000EEA22EF9CF36AF46A00D00D0EE15C11
:1017500002E2E16AE552E16EE552E7CFD9FF1200FD
:10176000D9CFE6FFE1CFD9FFFD0EDBCFE9FFFE0EBB
:10177000DBCFEAFF140EE926000EEA22EF50010B40
:1017800004E1010EF36EF46A28D0FD0EDBCFE9FF11
:10179000FE0EDBCFEAFF140EE926000EEA22EF9CD4
:1017A000E66EE66AFB0EDBCFE9FFFC0EDBCFEAFF5D
:1017B000EECFE6FFEECFE6FFEECFE6FFEFCFE6FFA0
:1017C000FD0EDBCFE6FFFE0EDBCFE6FF40EC05F0C3
:1017D000146E080EE15E145000D0E552E7CFD9FF39
:1017E0001200D9CFE6FFE1CFD9FFFD0EDBCFE9FF35
:1017F000FE0EDBCFEAFF140EE926000EEA22EF50C0
:10180000010B06E1010E066E076A086A096A49D0F3
:10181000FD0EDBCFE9FFFE0EDBCFEAFF140EE9265B
:10182000000EEA22EF50100B21E0010E146E156A33
:10183000166A176AFD0EDBCFE9FFFE0EDBCFEAFF6B
:101840000C0EE926000EEA22EE501426EE50152268
:10185000EE501622EE50172214C006F015C007F005
:1018600016C008F017C009F01CD01BD0FD0EDBCF4E
:10187000E9FFFE0EDBCFEAFF0C0EE926000EEA229E
:10188000EECF14F0EECF15F0EECF16F0EFCF17F04D
:1018900014C006F015C007F016C008F017C009F014
:1018A00000D0E552E7CFD9FF1200D9CFE6FFE1CF54
:1018B000D9FFFD0EDBCFE9FFFE0EDBCFEAFF140EF2
:1018C000E926000EEA22EF50010B04E1010EF36E4F
:1018D000F46A22D0FD0EDBCFE6FFFE0EDBCFE6FF83
:1018E00080DFE552E55206C014F007C015F008C0CD
:1018F00016F009C017F0FB0EDBCFE9FFFC0EDBCFC3
:10190000EAFF14C0EEFF15C0EEFF16C0EEFF17C0D1
:10191000EEFFF36AF46A00D0E552E7CFD9FF120078
:10192000D9CFE6FFE1CFD9FF000EE66EE66AE66AA0
:10193000E66AE66AE66AFD0EDBCFE6FFFE0EDBCF67
:10194000E6FF40EC05F0146E080EE15E1450FD0E4B
:10195000DBCFE9FFFE0EDBCFEAFF140EE926000E17
:10196000EA22EF9AE552E7CFD9FF1200D9CFE6FF7E
:10197000E1CFD9FF060EE126FB0EDBCFE9FFFC0E1F
:10198000DBCFEAFF140EE926000EEA22EF50010B2E
:1019900003E1F368F4687FD2FB0EDBCFE9FFFC0EB6
:1019A000DBCFEAFF140EE926000EEA22EF50040B0B
:1019B0000EE1FB0EDBCFE9FFFC0EDBCFEAFF140EDE
:1019C000E926000EEA22EF8AF368F46864D2FB0E7F
:1019D000DBCFE9FFFC0EDBCFEAFF140EE926000E99
:1019E000EA22EF50080B5EE0FB0EDBCFE9FFFC0EB6
:1019F000DBCFEAFF0C0EE926000EEA22EECFDFFF76
:101A0000010EEECFDBFF020EEECFDBFF030EEECFBB
:101A1000DBFFFB0EDBCFE9FFFC0EDBCFEAFF140E92
:101A2000E926000EEA22EF50100B09E0D9CFE9FFBA
:101A3000DACFEAFFEE2A000EEE22EE22EE22FB0EB5
:101A4000DBCFE9FFFC0EDBCFEAFF100EE926000E2C
:101A5000EA22EECF14F0EECF15F0EECF16F0EFCF76
:101A600017F0D9CFE9FFDACFEAFF1450EE5C15503A
:101A7000EE581650EE581750EE5814E2020EE66E6D
:101A8000E66A010EE66EE66AE66AE66AFB0EDBCF00
:101A9000E6FFFC0EDBCFE6FF40EC05F0146E080E0F
:101AA000E15E1450FB0EDBCFE9FFFC0EDBCFEAFF5B
:101AB000140EE926000EEA22EF50100B01E1E6D0E9
:101AC000FB0EDBCFE9FFFC0EDBCFEAFF0C0EE926B5
:101AD000000EEA22EE2AEE22EE22EE22FB0EDBCFF1
:101AE000E9FFFC0EDBCFEAFF0A0EE926000EEA2230
:101AF000EE2AEF22FB0EDBCFE9FFFC0EDBCFEAFF85
:101B00000A0EE926000EEA22EECF14F0EFCF15F010
:101B10000E01D151145CD251155801E2ACD0FB0E2C
:101B2000DBCFE9FFFC0EDBCFEAFF0A0EEB6A0B0E00
:101B3000EB6AFB0EDBCFE9FFFC0EDBCFEAFF090E01
:101B4000E926000EEA22EF2AFB0EDBCFE9FFFC0EAE
:101B5000DBCFEAFF090EE926000EEA22EFCF14F0F0
:101B600000019851145C01E286D0FB0EDBCFE9FF47
:101B7000FC0EDBCFEAFF090EE926000EEA22EF6A2F
:101B800079EC26F006C0DEFF07C0DEFF08C0DEFFEE
:101B900009C0DDFFDD52DD52D9CFE9FFDACFEAFF20
:101BA000E868EE1808E1E868EE1805E1E868EE1864
:101BB00002E1E868EE180FE18B84FB0EDBCFE9FF52
:101BC000FC0EDBCFEAFF140EE926000EEA22EF8CB2
:101BD000F368F46860D1D9CFE9FFDACFEAFFEECF3E
:101BE000E6FFEECFE6FFEECFE6FFEFCFE6FFFB0E20
:101BF000DBCFE9FFFC0EDBCFEAFF050EE926000E86
:101C0000EA22EECFE6FFEECFE6FFEECFE6FFEFCF24
:101C1000E6FFDEEC2AF0146E080EE15E1450E66872
:101C2000E668E6680F0EE66ED9CFE9FFDACFEAFF85
:101C3000EECFE6FFEECFE6FFEECFE6FFEFCFE6FF1B
:101C4000DEEC2AF0146E080EE15E1450FB0EDBCFC2
:101C5000E9FFFC0EDBCFEAFF050EE926000EEA22C3
:101C6000DFCFEEFF010EDBCFEEFF020EDBCFEEFF8C
:101C7000030EDBCFEEFFFB0EDBCFE9FFFC0EDBCF6D
:101C8000EAFF140EE926000EEA22EF98FB0EDBCFE6
:101C9000E9FFFC0EDBCFEAFF090EE926000EEA227F
:101CA000EFCF20F0216A226A236A98C01CF01D6AD7
:101CB0001E6A1F6AFB0EDBCFE9FFFC0EDBCFEAFFDB
:101CC000050EE926000EEA22EECF18F0EECF19F04D
:101CD000EECF1AF0EFCF1BF0020E185E000E195A6D
:101CE0001A5A1B5A18C006F019C007F01AC008F09B
:101CF0001BC009F01CC00BF01DC00CF01EC00DF085
:101D00001FC00EF09CEC3AF0025000012024146E2B
:101D100003502120156E04502220166E05502320FA
:101D2000176E0001935114269451152295511622D5
:101D30009651172214C0DFFF010E15C0DBFF020E03
:101D400016C0DBFF030E17C0DBFFD9CFE9FFDACFE8
:101D5000EAFF0E01EA51EE1809E1EB51EE1806E137
:101D6000EC51EE1803E1ED51EE1800E112E0D9CF8D
:101D7000E9FFDACFEAFFEECFE6FFEECFE6FFEECFE8
:101D8000E6FFEFCFE6FFF0EC33F0E552E552E55227
:101D9000E552FB0EDBCFE9FFFC0EDBCFEAFF0A0EBC
:101DA000E926000EEA22EECF14F0EFCF15F0000E78
:101DB00014260B0E1522040E14C0DBFF050E15C0F1
:101DC000DBFFFF0EE76EFD0EDBCF14F0FE0EDBCF68
:101DD00015F0E7501416156A040EDBCFE9FF050E67
:101DE000DBCFEAFF14C0EFFFFB0EDBCFE9FFFC0EF9
:101DF000DBCFEAFF100EE926000EEA22EECF14F048
:101E0000EECF15F0EECF16F0EFCF17F0FB0EDBCFD5
:101E1000E9FFFC0EDBCFEAFF0C0EE926000EEA22FA
:101E20001450EE5C1550EE581650EE581750EE5800
:101E300019E3FB0EDBCFE9FFFC0EDBCFEAFF100E50
:101E4000E926000EEA22EE2AEE22EE22EE22FB0E18
:101E5000DBCFE9FFFC0EDBCFEAFF140EE926000E14
:101E6000EA22EF8EFB0EDBCFE9FFFC0EDBCFEAFFB1
:101E7000140EE926000EEA22EF880001010E8A6F97
:101E8000FD0EDBCF14F0FE0EDBCF15F014C0F3FF18
:101E900015C0F4FF00D0060EE15C02E2E16AE552F3
:101EA000E16EE552E7CFD9FF1200D9CFE6FFE1CFCF
:101EB000D9FF070EE126FD0EDBCFE9FFFE0EDBCFDB
:101EC000EAFF140EE926000EEA22EF50010B03E1AF
:101ED000F368F4681FD2FD0EDBCFE9FFFE0EDBCF07
:101EE000EAFF140EE926000EEA22EF50020B0EE183
:101EF000FD0EDBCFE9FFFE0EDBCFEAFF140EE92675
:101F0000000EEA22EF8AF368F46804D2FD0EDBCFFC
:101F1000E9FFFE0EDBCFEAFF0C0EE926000EEA22F7
:101F2000010EEECFDBFF020EEECFDBFF030EEECF96
:101F3000DBFF040EEECFDBFFFD0EDBCFE9FFFE0E75
:101F4000DBCFEAFF140EE926000EEA22EF50100B59
:101F50000AE0D950010FE96EDACFEAFFEE2A000E4F
:101F6000EE22EE22EE22010EDBCF14F0020EDBCFCA
:101F700015F0030EDBCF16F0040EDBCF17F0FD0ECD
:101F8000DBCFE9FFFE0EDBCFEAFF100EE926000EE5
:101F9000EA22EE50145CEE501558EE501658EE50F2
:101FA00017580EE3FD0EDBCFE9FFFE0EDBCFEAFF95
:101FB000140EE926000EEA22EF8CF368F468AAD129
:101FC000FD0EDBCFE9FFFE0EDBCFEAFF140EE926A4
:101FD000000EEA22EF50100B01E1E3D0FD0EDBCF43
:101FE000E9FFFE0EDBCFEAFF0C0EE926000EEA2227
:101FF000EE2AEE22EE22EE22FD0EDBCFE9FFFE0EF0
:10200000DBCFEAFF0A0EE926000EEA22EE2AEF22D3
:10201000FD0EDBCFE9FFFE0EDBCFEAFF0A0EE9265D
:10202000000EEA22EECF14F0EFCF15F00E01D151E1
:10203000145CD251155801E2A9D0FD0EDBCFE9FFA7
:10204000FE0EDBCFEAFF0A0EEB6A0B0EEB6AFD0E0B
:10205000DBCFE9FFFE0EDBCFEAFF090EE926000E1B
:10206000EA22EF2AFD0EDBCFE9FFFE0EDBCFEAFF0F
:10207000090EE926000EEA22EFCF14F00001985174
:10208000145C01E283D0FD0EDBCFE9FFFE0EDBCF57
:10209000EAFF090EE926000EEA22EF6AFD0EDBCF09
:1020A000E9FFFE0EDBCFEAFF050EE926000EEA226D
:1020B000EECFE6FFEECFE6FFEECFE6FFEFCFE6FF97
:1020C000F6EC28F0E552E552E552E552010E06C065
:1020D000DBFF020E07C0DBFF030E08C0DBFF040EB0
:1020E00009C0DBFF000197511EE0D950010FE96ED6
:1020F000DACFEAFFF80EEE5CFF0EEE58FF0EEE5858
:102100000F0EEE580FE38B84FD0EDBCFE9FFFE0EC2
:10211000DBCFEAFF140EE926000EEA22EF8CF3680B
:10212000F468F8D01DD0D950010FE96EDACFEAFF7C
:10213000F80EEE5CFF0EEE58000EEE58000EEE5854
:102140000FE38B84FD0EDBCFE9FFFE0EDBCFEAFF52
:10215000140EE926000EEA22EF8CF368F468DAD058
:10216000FD0EDBCFE9FFFE0EDBCFEAFF050EE92611
:10217000000EEA22010EDBCFEEFF020EDBCFEEFFF8
:10218000030EDBCFEEFF040EDBCFEEFFFD0EDBCF49
:10219000E9FFFE0EDBCFEAFF140EE926000EEA226D
:1021A000EF98FD0EDBCFE9FFFE0EDBCFEAFF090E55
:1021B000E926000EEA22EFCF20F0216A226A236A84
:1021C00098C01CF01D6A1E6A1F6AFD0EDBCFE9FF76
:1021D000FE0EDBCFEAFF050EE926000EEA22EECF67
:1021E00018F0EECF19F0EECF1AF0EFCF1BF0020E81
:1021F000185E000E195A1A5A1B5A18C006F019C058
:1022000007F01AC008F01BC009F01CC00BF01DC07D
:102210000CF01EC00DF01FC00EF09CEC3AF0025006
:1022200000012024146E03502120156E045022203A
:10223000166E05502320176E0001935114269451F9
:1022400015229551162296511722010E14C0DBFF5C
:10225000020E15C0DBFF030E16C0DBFF040E17C015
:10226000DBFFD950010FE96EDACFEAFF0E01EA5128
:10227000EE1809E1EB51EE1806E1EC51EE1803E11E
:10228000ED51EE1800E113E0D950010FE96EDACFFD
:10229000EAFFEECFE6FFEECFE6FFEECFE6FFEFCFB1
:1022A000E6FFF0EC33F0E552E552E552E552FD0E63
:1022B000DBCFE9FFFE0EDBCFEAFF0A0EE926000EB8
:1022C000EA22EECF14F0EFCF15F0000E14260B0E1D
:1022D0001522050E14C0DBFF060E15C0DBFF050E30
:1022E000DBCFE9FF060EDBCFEAFFEF50DF6EFD0E1E
:1022F000DBCFE9FFFE0EDBCFEAFF140EE926000E6E
:10230000EA22EF88DF50146E156A14C0F3FF15C07F
:10231000F4FF00D0070EE15C02E2E16AE552E16EF3
:10232000E552E7CFD9FF1200D9CFE6FFE1CFD9FFC1
:10233000040EE126FD0EDBCFDEFFDBCFDDFFDECFBF
:10234000E9FFDDCFEAFFEF5032E0FB0EDBCFE6FF27
:10235000FC0EDBCFE6FFDFCFE9FFDF2A010EDBCF8C
:10236000EAFF01E3DB2AEFCF14F0156A14BE15680B
:1023700014C0E6FF15C0E6FFB6EC0CF0E552E552DE
:10238000E552E552020EF3CFDBFF030EF4CFDBFF85
:10239000D950020FE96EDACFEAFFFF0EEE1802E124
:1023A000FF0EED1803E1F368F46804D0C8D7F36AB0
:1023B000F46A00D0040EE15C02E2E16AE552E16EEB
:1023C000E552E7CFD9FF1200D9CFE6FFE1CFD9FF21
:1023D000040EE126FD0EDBCFDEFFDBCFDDFFDECF1F
:1023E000E9FFDDCFEAFFEF5032E0FB0EDBCFE6FF87
:1023F000FC0EDBCFE6FFDFCFE9FFDF2A010EDBCFEC
:10240000EAFF01E3DB2AEFCF14F0156A14BE15686A
:1024100014C0E6FF15C0E6FFB6EC0CF0E552E5523D
:10242000E552E552020EF3CFDBFF030EF4CFDBFFE4
:10243000D950020FE96EDACFEAFFFF0EEE1802E183
:10244000FF0EED1803E1F368F46804D0C8D7F36A0F
:10245000F46A00D0040EE15C02E2E16AE552E16E4A
:10246000E552E7CFD9FF1200D9CFE6FFE1CFD9FF80
:10247000040EE126FD0EDBCFDEFFDBCFDDFFF90E24
:10248000DBCFE6FFFA0EDBCFE6FF0FDDE552E552CC
:10249000020EF3CFDBFF030EF4CFDBFFD950020FA8
:1024A000E96EDACFEAFFFF0EEE1802E1FF0EED183B
:1024B00038E0FB0EDBCF14F0FC0EDBCF15F015344B
:1024C00004E214500108000E15542BE2DFCFE9FF9F
:1024D000DF2A010EDBCFEAFF01E3DB2A020EDBCFAE
:1024E000EFFFFB0EDB06FC0E01E2DB06D950020F0C
:1024F000E96EDACFEAFF0A0EEE1801E1ED5001E1D4
:1025000010D0F90EDBCFE6FFFA0EDBCFE6FFCDDC15
:10251000E552E552020EF3CFDBFF030EF4CFDBFFF3
:10252000BDD7DFCFE9FFDF2A010EDBCFEAFF01E3F2
:10253000DB2AEF6AD950020FE96EDACFEAFFFF0E0D
:10254000EE1802E1FF0EED1804E1F36AF46A0CD014
:102550000BD0FD0EDBCF14F0FE0EDBCF15F014C058
:10256000F3FF15C0F4FF00D0040EE15C02E2E16A63
:10257000E552E16EE552E7CFD9FF1200D9CFE6FF71
:10258000E1CFD9FF060EE126040EDB6A050EDB6AF9
:10259000FD0EDBCF08F0FE0EDBCF09F0020E08C007
:1025A000DBFF030E09C0DBFFD950F90FE96EFF0E08
:1025B000DA20EA6EEE50ED1053E0DE6ADD6ADECF1F
:1025C00014F0DDCF15F0FB0EDBCF16F0FC0EDBCFE9
:1025D00017F015501718E8AE02D0173404D0165073
:1025E000145C1750155831E2F70EDBCFE6FFF80EFA
:1025F000DBCFE6FF020EDBCFE9FFDB2A030EDBCFEA
:10260000EAFF01E3DB2AEF50E66EE66AB6EC0CF077
:10261000E552E552E552E552F3CF14F0F4CF15F050
:102620000001141C01E1151C0BE1040EDBCF14F0BA
:10263000050EDBCF15F014C0F3FF15C0F4FF1BD05F
:10264000DF2A010E01E3DB2ABAD7040EDB2A050ECE
:1026500001E3DB2AF90EDB06FA0E01E2DB06A4D762
:10266000040EDBCF14F0050EDBCF15F014C0F3FF22
:1026700015C0F4FF00D0060EE15C02E2E16AE5520B
:10268000E16EE552E7CFD9FF1200D9CFE6FFE1CFE7
:10269000D9FF080EE126060EDB6A070EDB6AFD0E87
:1026A000DBCF08F0FE0EDBCF09F0040E08C0DBFF25
:1026B000050E09C0DBFFD950F90FE96EFF0EDA20D5
:1026C000EA6EEE50ED1059E0DE6ADD6ADECF14F0FE
:1026D000DDCF15F0FB0EDBCF16F0FC0EDBCF17F0D5
:1026E00015501718E8AE02D0173404D01650145CF9
:1026F0001750155837E2F70EDBCFE6FFF80EDBCFA9
:10270000E6FF55EC0FF0E552E552020EF3CFDBFF8A
:10271000030EF4CFDBFFD950020FE96EDACFEAFFE8
:10272000FF0EEE1802E1FF0EED180BE1060EDBCFF7
:1027300014F0070EDBCF15F014C0F3FF15C0F4FF43
:1027400027D0040EDBCFE9FFDB2A050EDBCFEAFF43
:1027500001E3DB2A020EDBCFEFFFDF2A010E01E3EC
:10276000DB2AB4D7060EDB2A070E01E3DB2AF90EBB
:10277000DB06FA0E01E2DB069ED7060EDBCF14F075
:10278000070EDBCF15F014C0F3FF15C0F4FF00D027
:10279000080EE15C02E2E16AE552E16EE552E7CF44
:1027A000D9FF1200D9CFE6FFE1CFD9FF020EE12613
:1027B000FD0EDBCFE9FFFE0EDBCFEAFF140EE926AC
:1027C000000EEA22EF50010B04E1010EF36EF46AF1
:1027D0001BD100018A511DE0E8680E01EA1908E1E9
:1027E000E868EB1905E1E868EC1902E1E868ED1921
:1027F0000EE0EACEE6FFEBCEE6FFECCEE6FFEDCE56
:10280000E6FF04EC35F0E552E552E552E5520001F1
:102810008A6BFD0EDBCFE9FFFE0EDBCFEAFF140E65
:10282000E926000EEA22EF50800B01E1E9D0FD0E0F
:10283000DBCFE9FFFE0EDBCFEAFFEECFE6FFEECF08
:10284000E6FFEECFE6FFEFCFE6FFF0EC33F0E55228
:10285000E552E552E552FD0EDBCFE9FFFE0EDBCF80
:10286000EAFF040EE926000EEA22EF50146E156A04
:10287000050ED89014361536E804FBE1000E142638
:102880000B0E15221C0E1426000E152214C0DEFF9E
:1028900015C0DDFFFD0EDBCFE9FFFE0EDBCFEAFF4B
:1028A000100EE926000EEA22EECF14F0EECF15F05E
:1028B000EECF16F0EFCF17F01450E66EDFCFE9FF42
:1028C000DF2A010EDBCFEAFF01E3DB2AE552E75006
:1028D000EF6E146A1568166A176AFD0EDBCFE9FF02
:1028E000FE0EDBCFEAFF100EE926000EEA22EE50C4
:1028F0001416EE501516EE501616EE501716080E5A
:10290000D8901732163215321432E806F9E1DFCFCB
:10291000E9FFDF2A010EDBCFEAFF01E3DB2A14C067
:10292000EFFF146A156A1668176AFD0EDBCFE9FF20
:10293000FE0EDBCFEAFF100EE926000EEA22EE5073
:102940001416EE501516EE501616EE501716100E01
:10295000D8901732163215321432E806F9E1DFCF7B
:10296000E9FFDF2A010EDBCFEAFF01E3DB2A14C017
:10297000EFFF146A156A166A1768FD0EDBCFE9FFD0
:10298000FE0EDBCFEAFF100EE926000EEA22EE5023
:102990001416EE501516EE501616EE501716180EA9
:1029A000D8901732163215321432E806F9E1DFCF2B
:1029B000E9FFDF2A010EDBCFEAFF01E3DB2A14C0C7
:1029C000EFFFFD0EDBCFE9FFFE0EDBCFEAFFEECF20
:1029D000E6FFEECFE6FFEECFE6FFEFCFE6FF04EC3B
:1029E00035F0E552E552E552E552FD0EDBCFE9FF49
:1029F000FE0EDBCFEAFF140EE926000EEA22EF9E60
:102A00008B84F36AF46A00D0020EE15C02E2E16AB0
:102A1000E552E16EE552E7CFD9FF1200D9CFE6FFCC
:102A2000E1CFD9FFFD0EDBCFE9FFFE0EDBCFEAFFE2
:102A3000140EE926000EEA22EF50010B04E1010E0C
:102A4000F36EF46A17D0FD0EDBCFE6FFFE0EDBCF90
:102A5000E6FFA8DEE552E552FD0EDBCFE9FFFE0EF4
:102A6000DBCFEAFF140EE926000EEA22EF90F36AAC
:102A7000F46A00D0E552E7CFD9FF1200D9CFE6FFC4
:102A8000E1CFD9FF310EE1261A0EDB681B0EDB68A1
:102A90001C0EDB681D0EDB680E01EE5104E1010E19
:102AA000F36EF46AEBD2D9500E0FE66E000EDA2008
:102AB000E66ED950060FE66E000EDA20E66ED950AB
:102AC000220FE66E000EDA20E66ED9501E0FE66E7B
:102AD000000EDA20E66ED950190FE66E000EDA20ED
:102AE000E66ED950110FE66E000EDA20E66EFD0E8E
:102AF000DBCFE6FFFE0EDBCFE6FFBFEC19F0146E76
:102B00000E0EE15E1450150E06C0DBFF160E07C058
:102B1000DBFF170E08C0DBFF180E09C0DBFFD95022
:102B2000150FE96EDACFEAFFE868EE1808E1E86809
:102B3000EE1805E1E868EE1802E1E868EE1805E134
:102B40008B84010EF36EF46A99D2DF6A020EDF5CA9
:102B50004EE2DF50160DF3CFE9FFF4CFEAFFA50EEA
:102B6000E9260E0EEA22140EE926000EEA22EF50A4
:102B7000010B3BE01E0EDBCF14F01F0EDBCF15F078
:102B8000200EDBCF16F0210EDBCF17F0DF50160D35
:102B9000F3CFE9FFF4CFEAFFA50EE9260E0EEA22F5
:102BA000EE50141809E1EE50151806E1EE50161813
:102BB00003E1EE50171800E118E1DF50160DF3CFD6
:102BC000E9FFF4CFEAFFA50EE9260E0EEA22040E75
:102BD000E926000EEA22EFCF18F0220EDB50185C37
:102BE00004E1010EF36EF46A49D2DF2AAFD7E50E95
:102BF000F36E060EF3CFDBFFD950150FE66E000E15
:102C0000DA20E66ED950110FE66E000EDA20E66E7D
:102C1000D950190FE66E000EDA20E66ED9500E0F6D
:102C2000E66E000EDA20E66ED950060FE66E000E54
:102C3000DA20E66EC1EC21F0146E0A0EE15E14504B
:102C40000400D950150FE96EDACFEAFFEECFE6FFA8
:102C5000EECFE6FFEECFE6FFEFCFE6FFF6EC28F093
:102C6000E552E552E552E552020E06C0DBFF030EC7
:102C700007C0DBFF040E08C0DBFF050E09C0DBFF49
:102C80002D0E8BC0DBFF2E0E8CC0DBFF2F0E8DC0F8
:102C9000DBFF300E8EC0DBFF0001975115E0D1CE77
:102CA00014F0D2CE15F0D89015321432D8901532D7
:102CB0001432230E14C0DBFF240E15C0DBFF250EDB
:102CC000DB6A260EDB6A11D0D1CE14F0D2CE15F01D
:102CD000D89015321432230E14C0DBFF240E15C019
:102CE000DBFF250EDB6A260EDB6A020EDBCF14F05B
:102CF000030EDBCF15F0040EDBCF16F0050EDBCF95
:102D000017F014C006F015C007F016C008F017C081
:102D100009F0230EDBCF0BF0240EDBCF0CF0250ED9
:102D2000DBCF0DF0260EDBCF0EF0D4EC3AF0270E01
:102D300006C0DBFF280E07C0DBFF290E08C0DBFF43
:102D40002A0E09C0DBFFD9502D0FE96EDACFEAFF5A
:102D5000270EDB50EE26280EDB50EE22290EDB502C
:102D6000EE222A0EDB50EE22D9502D0FE96EDACF7B
:102D7000EAFFEE500E01EA190CE1EE500E01EB19DC
:102D800008E1EE500E01EC1904E1EE500E01ED19D0
:102D900000E101E0BFD0270EDBCF18F0280EDBCF1B
:102DA00019F0290EDBCF1AF02A0EDBCF1BF018C06A
:102DB00006F019C007F01AC008F01BC009F0230E76
:102DC000DBCF0BF0240EDBCF0CF0250EDBCF0DF0AC
:102DD000260EDBCF0EF09CEC3AF002C014F003C0DC
:102DE00015F004C016F005C017F0D950150FE96EA4
:102DF000DACFEAFF1450EE5E1550EE5A1650EE5A36
:102E00001750EE5A000197514EE0150EDBCF16F029
:102E1000160EDBCF17F0170EDBCF18F0180EDBCF36
:102E200019F0020E1F0B07E0D89016361736183629
:102E30001936E806F9E1000E1624146E0B0E172061
:102E4000156E2B0E14C0DBFF2C0E15C0DBFF2B0EF6
:102E5000DBCFE9FFDB2A2C0EDBCFEAFF01E3DB2A25
:102E6000EF6A2B0EDBCFE9FFDB2A2C0EDBCFEAFF6C
:102E700001E3DB2AEF6A2B0EDBCFE9FFDB2A2C0E06
:102E8000DBCFEAFF01E3DB2AEF6AF00E146E2B0EB4
:102E9000DBCFE9FFDB2A2C0EDBCFEAFF01E3DB2AE5
:102EA0001450EF1636D0150EDBCF16F0160EDBCF12
:102EB00017F0170EDBCF18F0180EDBCF19F0010E4C
:102EC0001F0B07E0D8901636173618361936E80665
:102ED000F9E1000E1624146E0B0E1720156E2B0E42
:102EE00014C0DBFF2C0E15C0DBFF2B0EDBCFE9FF80
:102EF000DB2A2C0EDBCFEAFF01E3DB2AEF6A2B0E85
:102F0000DBCFE9FFDB2A2C0EDBCFEAFF01E3DB2A74
:102F1000EF6A17D0E66AE66AE66AE66AD950150FE4
:102F2000E96EDACFEAFFEECFE6FFEECFE6FFEECFB7
:102F3000E6FFEFCFE6FFDEEC2AF0146E080EE15E4E
:102F40001450000197511DE01468156816680F0EA3
:102F5000176ED950020FE96EDACFEAFFEE50141661
:102F6000EE501516EE501616EE501716F80E145CAD
:102F7000FF0E1558FF0E16580F0E175801E35CD0C0
:102F80000FD0D950020FE96EDACFEAFFF80EEE5CEF
:102F9000FF0EEE58000EEE58000EEE5801E34CD036
:102FA000D950020FE96EDACFEAFF020EEE5C000E96
:102FB000EE58000EEE58000EEE5801E23DD0D9500A
:102FC000020FE96EDACFEAFF150EEECFDBFF160E29
:102FD000EECFDBFF170EEECFDBFF180EEECFDBFFE1
:102FE0001A0EDBCF14F01B0EDBCF15F01C0EDBCF5F
:102FF00016F01D0EDBCF17F0D950150FE96EDACFA2
:10300000EAFF1450EE5C1550EE581650EE5817506B
:10301000EE5811E2D950150FE96EDACFEAFF1A0E19
:10302000EECFDBFF1B0EEECFDBFF1C0EEECFDBFF88
:103030001D0EEECFDBFF04D68B84D9501A0FE96E3C
:10304000DACFEAFF00019951EE5C00019A51EE5887
:1030500000019B51EE5800019C51EE580CE21A0EF3
:10306000DBCF99F01B0EDBCF9AF01C0EDBCF9BF071
:103070001D0EDBCF9CF0F36AF46A00D0310EE15CE8
:1030800002E2E16AE552E16EE552E7CFD9FF1200B4
:10309000D9CFE6FFE1CFD9FF1A0EE1260B0EDB6A8E
:1030A0000C0EDB6A0D0EDB6A0E0EDB6A0E01EE51B2
:1030B00004E1010EF36EF46AFCD0D950080FE66EFD
:1030C000000EDA20E66ED9CFE6FFDACFE6FFD95060
:1030D000180FE66E000EDA20E66ED950140FE66E79
:1030E000000EDA20E66ED950130FE66E000EDA20DD
:1030F000E66ED9500F0FE66E000EDA20E66EFD0E7A
:10310000DBCFE6FFFE0EDBCFE6FF39D9146E0E0EE5
:10311000E15E14500B0E06C0DBFF0C0E07C0DBFF98
:103120000D0E08C0DBFF0E0E09C0DBFFD9500B0FE0
:10313000E96EDACFEAFFE868EE1808E1E868EE1811
:1031400005E1E868EE1802E1E868EE1805E18B8415
:10315000010EF36EF46AADD0D9500B0FE96EDACFE1
:10316000EAFFE868EE1808E1E868EE1805E1E868AB
:10317000EE1802E1E868EE185CE0190EDB6A020E58
:10318000F36E190EDBCFF4FFF350F45C52E2190E2C
:10319000DB50160DF3CFE9FFF4CFEAFFA50EE926C9
:1031A0000E0EEA22140EE926000EEA22EF50010B61
:1031B0003DE0140EDBCF14F0150EDBCF15F0160E2C
:1031C000DBCF16F0170EDBCF17F0190EDB50160D04
:1031D000F3CFE9FFF4CFEAFFA50EE9260E0EEA22AF
:1031E000EE50141809E1EE50151806E1EE501618CD
:1031F00003E1EE50171800E119E1190EDB50160D2E
:10320000F3CFE9FFF4CFEAFFA50EE9260E0EEA227E
:10321000040EE926000EEA22EFCF18F0180EDB505C
:10322000185C04E1010EF36EF46A43D0190EDB2A38
:10323000A6D7D950080FE66E000EDA20E66ED9CF79
:10324000E6FFDACFE6FFFB0EDBCFE6FFFC0EDBCFBF
:10325000E6FFC5D9146E060EE15E1450000904E0C5
:10326000010EF36EF46A25D0D9500B0FE66E000EF6
:10327000DA20E66ED9500F0FE66E000EDA20E66E09
:10328000D950130FE66E000EDA20E66ED950080F03
:10329000E66E000EDA20E66ED9CFE6FFDACFE6FF63
:1032A000C1EC21F0146E0A0EE15E1450F36AF46A68
:1032B00000D01A0EE15C02E2E16AE552E16EE552ED
:1032C000E7CFD9FF1200D9CFE6FFE1CFD9FFFD0E3E
:1032D000DBCFE9FFFE0EDBCFEAFF140EE926000E7E
:1032E000EA22EF9AFD0EDBCFE9FFFE0EDBCFEAFF0D
:1032F000140EE926000EEA22EF9CE552E7CFD9FF33
:103300001200D9CFE6FFE1CFD9FFFD0EDBCFE9FFF9
:10331000FE0EDBCFEAFF140EE926000EEA22EF5084
:10332000400B05E0010EF36EF46A04D003D0F36A9B
:10333000F46A00D0E552E7CFD9FF1200D9CFE6FFFB
:10334000E1CFD9FFFD0EDBCFE9FFFE0EDBCFEAFFB9
:10335000140EE926000EEA22EF50200B05E0010EC4
:10336000F36EF46A04D003D0F36AF46A00D0E55235
:10337000E7CFD9FF12000E01EE5100D01200D9CFD5
:10338000E6FFE1CFD9FF120EE1260E01EE5105E175
:10339000066807680868096818D1D9500B0FE66EEF
:1033A000000EDA20E66ED950030FE66E000EDA202A
:1033B000E66EFD0EDBCFE6FFFE0EDBCFE6FF0FD99C
:1033C000146E060EE15E1450010EF36E020EF3CF82
:1033D000DBFF0400F50EDBCFE6FFF60EDBCFE6FFEA
:1033E000F70EDBCFE6FFF80EDBCFE6FF020EDBCFFA
:1033F000E6FFD9500E0FE66E000EDA20E66EFB0EE9
:10340000DBCFE6FFFC0EDBCFE6FFF90EDBCFE6FFFE
:10341000FA0EDBCFE6FFF10EDBCFE6FFF20EDBCFDD
:10342000E6FFF30EDBCFE6FFF40EDBCFE6FF6EDA4E
:10343000146E0F0EE15E1450000906E18B840668DD
:10344000076808680968C1D0020EDB6ADE52010E07
:10345000DD6EF30EDBCFE9FFF40EDBCFEAFFEF50BA
:1034600006E18B840668076808680968AED0F30E29
:10347000DBCFE9FFF40EDBCFEAFFEF50E50802E116
:10348000010EDB6ADF6A080EDF5C30E2D950030F01
:10349000146EDACF15F0DF500F011424E96E000E20
:1034A0001520EA6EEF503F081FE0DF50E76EF30E85
:1034B000DBCFE9FFF40EDBCFEAFFE750E926000E91
:1034C000EA22EFCF16F0D950030F176EDACF18F0BB
:1034D000DF500F011724E96E000E1820EA6EEF503E
:1034E000165C02E0010EDB6ADF2ACDD7DF6A030E2D
:1034F000DF5C30E2D9500B0F146EDACF15F0DF50DD
:103500000F011424E96E000E1520EA6EEF503F08FB
:103510001FE0DF50E76EF10EDBCFE9FFF20EDBCFED
:10352000EAFFE750E926000EEA22EFCF16F0D95065
:103530000B0F176EDACF18F0DF500F011724E96E6A
:10354000000E1820EA6EEF50165C02E0010EDB6AF6
:10355000DF2ACDD7F90EDBCFE9FFFA0EDBCFEAFF8A
:10356000EF50080B02E0010EDB6AF90EDBCFE9FF3A
:10357000FA0EDBCFEAFFEF50100B02E0010EDB6A20
:10358000F90EDBCFE9FFFA0EDBCFEAFFEF50020BBB
:1035900002E0010EDB6A010EDB5016E08B840E0E9A
:1035A000DBCF14F00F0EDBCF15F0100EDBCF16F0D3
:1035B000110EDBCF17F014C006F015C007F016C0CF
:1035C00008F017C009F001D004D7120EE15C02E246
:1035D000E16AE552E16EE552E7CFD9FF1200D9CF9B
:1035E000E6FFE1CFD9FF040EE126020EDB6ADE52D0
:1035F000010EDD6E030EDB6ADF6A080EDF5C73E22C
:10360000FD0EDBCFE9FFFE0EDBCFEAFFEF503F08F8
:1036100009E0FD0EDBCFE9FFFE0EDBCFEAFFEF5046
:103620002A0805E1010EF36E020EF3CFDBFFFD0E5B
:10363000DBCFE9FFFE0EDBCFEAFFEF502A0805E102
:10364000010EF36E030EF3CFDBFFFD0EDBCFE9FFC0
:10365000FE0EDBCFEAFFEF502E0802E1010EDB6A1F
:10366000030EDB5018E0FB0EDBCFE9FFDB2AFC0E7C
:10367000DBCFEAFF01E3DB2A3F0EEF6E010EDB50EA
:1036800009E0FD0EDBCFE9FFDB2AFE0EDBCFEAFF10
:1036900001E3DB2A26D0010EDB5018E0FD0EDBCF64
:1036A000E9FFDB2AFE0EDBCFEAFF01E3DB2AEF5066
:1036B000E66EFB0EDBCFE9FFDB2AFC0EDBCFEAFF79
:1036C00001E3DB2AE552E750EF6E0BD0FB0EDBCFB8
:1036D000E9FFDB2AFC0EDBCFEAFF01E3DB2A200E49
:1036E000EF6EDF2A8AD7FD0EDBCFE9FFDB2AFE0E65
:1036F000DBCFEAFF01E3DB2ADE52010EDD6E030EB3
:10370000DB6ADF6A030EDF5C72E2FD0EDBCFE9FFEE
:10371000FE0EDBCFEAFFEF503F0809E0FD0EDBCFE6
:10372000E9FFFE0EDBCFEAFFEF502A0805E1010EAC
:10373000F36E020EF3CFDBFFFD0EDBCFE9FFFE0ED3
:10374000DBCFEAFFEF502A0805E1010EF36E030E0E
:10375000F3CFDBFFFD0EDBCFE9FFFE0EDBCFEAFF91
:10376000EF5002E1010EDB6A030EDB5018E0F90EA8
:10377000DBCFE9FFDB2AFA0EDBCFEAFF01E3DB2A2E
:103780003F0EEF6E010EDB5009E0FD0EDBCFE9FFCF
:10379000DB2AFE0EDBCFEAFF01E3DB2A26D0010E97
:1037A000DB5018E0FD0EDBCFE9FFDB2AFE0EDBCF9E
:1037B000EAFF01E3DB2AEF50E66EF90EDBCFE9FF0B
:1037C000DB2AFA0EDBCFEAFF01E3DB2AE552E75002
:1037D000EF6E0BD0F90EDBCFE9FFDB2AFA0EDBCF61
:1037E000EAFF01E3DB2A200EEF6EDF2A8BD7D950E8
:1037F000FB0FE96EFF0EDA20EA6E080EEE5E000E99
:10380000ED5AD950F90FE96EFF0EDA20EA6E030E79
:10381000EE5E000EED5ADF6A080EDF5C32E2DF502A
:10382000E76EFB0EDBCFE9FFFC0EDBCFEAFFE750D4
:10383000E926000EEA22EFCF14F0610E145C1FE3BC
:10384000DF50E76EFB0EDBCFE9FFFC0EDBCFEAFFBC
:10385000E750E926000EEA22EF507A0810E3200E26
:10386000146EDF50E76EFB0EDBCFE9FFFC0EDBCF03
:10387000EAFFE750E926000EEA221450EF5EDF2A45
:10388000CBD7DF6A030EDF5C32E2DF50E76EF90E62
:10389000DBCFE9FFFA0EDBCFEAFFE750E926000EA7
:1038A000EA22EFCF14F0610E145C1FE3DF50E76EE5
:1038B000F90EDBCFE9FFFA0EDBCFEAFFE750E9268E
:1038C000000EEA22EF507A0810E3200E146EDF504B
:1038D000E76EF90EDBCFE9FFFA0EDBCFEAFFE75028
:1038E000E926000EEA221450EF5EDF2ACBD7020E43
:1038F000DB50146E040EE15C03E200D0E16AE55295
:10390000E16E1450E552E7CFD9FF1200D9CFE6FFA0
:10391000E1CFD9FF090EE126F40EDB505FE0000194
:10392000975149E098C018F0196A1A6A1B6A8FC04B
:1039300014F090C015F091C016F092C017F0020E6E
:10394000145E000E155A165A175A14C006F015C008
:1039500007F016C008F017C009F018C00BF019C026
:103960000CF01AC00DF01BC00EF09CEC3AF00001F8
:10397000935102240001A26F000194510320000121
:10398000A36F0001955104200001A46F000196511E
:1039900005200001A56FA207000EA35BA45BA55B39
:1039A0008FC0D4FE90C0D5FE91C0D6FE92C0D7FE87
:1039B00098C0D3FE10D08FC0A2F090C0A3F091C0E9
:1039C000A4F092C0A5F00001A207000EA35BA45BC7
:1039D000A55B88C0D3FE0001A669A769D1CE14F00B
:1039E000D2CE15F0200E145E000E155A050ED8909A
:1039F00015321432E804FBE100011450A65D1550A5
:103A0000A75901E282D10001A22B000EA323A42317
:103A1000A5230E01D35101E066D10001975101E1C8
:103A20005FD1000198050E01D36FD4CEE6FFD5CE4D
:103A3000E6FFD6CEE6FFD7CEE6FFF6EC28F0E5525D
:103A4000E552E552E552030E06C0DBFF040E07C047
:103A5000DBFF050E08C0DBFF060E09C0DBFF1468A4
:103A6000156816680F0E176ED950030FE96EDACF7E
:103A7000EAFFEE501416EE501516EE501616EE50E4
:103A80001716F80E145CFF0E1558FF0E16580F0E81
:103A9000175801E2DFD079EC26F0030E06C0DBFFF9
:103AA000040E07C0DBFF050E08C0DBFF060E09C0D1
:103AB000DBFFD950030FE96EDACFEAFFE868EE18B2
:103AC00008E1E868EE1805E1E868EE1802E10F0E7B
:103AD000EE1804E18B84000EB5EF21F0D950030FEE
:103AE000E96EDACFEAFFEECFE6FFEECFE6FFEECFEC
:103AF000E6FFEFCFE6FFD4CEE6FFD5CEE6FFD6CE8B
:103B0000E6FFD7CEE6FFDEEC2AF0146E080EE15E8B
:103B10001450E668E668E6680F0EE66ED950030FAB
:103B2000E96EDACFEAFFEECFE6FFEECFE6FFEECFAB
:103B3000E6FFEFCFE6FFDEEC2AF0146E080EE15E42
:103B40001450030EDBCFD4FE040EDBCFD5FE050EE2
:103B5000DBCFD6FE060EDBCFD7FED950070FE96EBE
:103B6000DACFEAFF000EEE6E0B0EED6E010EDB6A91
:103B7000020EDB6A010EDBCF14F0020EDBCF15F074
:103B8000000E145C020E155810E2070EDBCFE9FFA1
:103B9000DB2A080EDBCFEAFF01E3DB2AEF6A010E26
:103BA000DB2A020E01E3DB2AE5D7DF6A0001985128
:103BB000DF5C4FE298C01CF01D6A1E6A1F6AD4CEFB
:103BC00018F0D5CE19F0D6CE1AF0D7CE1BF0020ED3
:103BD000185E000E195A1A5A1B5A18C006F019C05E
:103BE00007F01AC008F01BC009F01CC00BF01DC084
:103BF0000CF01EC00DF01FC00EF09CEC3AF000015E
:103C000093510224146E94510320156E9551042093
:103C1000166E96510520176EDFCF20F0216A226ABA
:103C2000236A205014262150152222501622235098
:103C3000172214C0E6FF15C0E6FF16C0E6FF17C046
:103C4000E6FF04EC35F0E552E552E552E552DF2A95
:103C5000ADD70CD0030EDBCFD4FE040EDBCFD5FEE8
:103C6000050EDBCFD6FE060EDBCFD7FE98C018F0D0
:103C7000196A1A6A1B6AD4CE14F0D5CE15F0D6CEC6
:103C800016F0D7CE17F0020E145E000E155A165A13
:103C9000175A14C006F015C007F016C008F017C078
:103CA00009F018C00BF019C00CF01AC00DF01BC0C1
:103CB0000EF09CEC3AF00001935102240001A26F37
:103CC0000001945103200001A36F000195510420CD
:103CD0000001A46F0001965105200001A56F04D0DA
:103CE0008B84000E42D3D307A2C0E6FFA3C0E6FF39
:103CF000A4C0E6FFA5C0E6FFF0EC33F0E552E552C4
:103D0000E552E5520001A669A769A62B000EA7237C
:103D1000A6C014F0A7C015F0050ED89014361536BD
:103D2000E804FBE1000E14260B0E1522070E14C04A
:103D3000DBFF080E15C0DBFF070EDBCFE9FFDB2A38
:103D4000080EDBCFEAFF01E3DB2AEF50E66EFD0E43
:103D5000DBCFE9FFFE0EDBCFEAFFE552E750EF6E67
:103D6000070EDBCFE9FFDB2A080EDBCFEAFF01E31A
:103D7000DB2AEF50E66E010EE76EFD0EDBCFE9FFAA
:103D8000FE0EDBCFEAFFE750E926000EEA22E552FD
:103D9000E750EF6E070EDBCFE9FFDB2A080EDBCF23
:103DA000EAFF01E3DB2AEF50E66E020EE76EFD0E3E
:103DB000DBCFE9FFFE0EDBCFEAFFE750E926000E7E
:103DC000EA22E552E750EF6E070EDBCFE9FFDB2A70
:103DD000080EDBCFEAFF01E3DB2AEF50E66E030EAD
:103DE000E76EFD0EDBCFE9FFFE0EDBCFEAFFE7500B
:103DF000E926000EEA22E552E750EF6E070EDBCF10
:103E0000E9FFDB2A080EDBCFEAFF01E3DB2AEF50F4
:103E1000E66E040EE76EFD0EDBCFE9FFFE0EDBCF94
:103E2000EAFFE750E926000EEA22E552E750EF6E7E
:103E3000070EDBCFE9FFDB2A080EDBCFEAFF01E349
:103E4000DB2AEF50E66E050EE76EFD0EDBCFE9FFD5
:103E5000FE0EDBCFEAFFE750E926000EEA22E5522C
:103E6000E750EF6E070EDBCFE9FFDB2A080EDBCF52
:103E7000EAFF01E3DB2AEF50E66E060EE76EFD0E69
:103E8000DBCFE9FFFE0EDBCFEAFFE750E926000EAD
:103E9000EA22E552E750EF6E070EDBCFE9FFDB2A9F
:103EA000080EDBCFEAFF01E3DB2AEF50E66E070ED8
:103EB000E76EFD0EDBCFE9FFFE0EDBCFEAFFE7503A
:103EC000E926000EEA22E552E750EF6EDF6A080E9F
:103ED000DF5C32E2DF50E76EFD0EDBCFE9FFFE0E66
:103EE000DBCFEAFFE750E926000EEA22EFCF14F01D
:103EF000610E145C1FE3DF50E76EFD0EDBCFE9FFC0
:103F0000FE0EDBCFEAFFE750E926000EEA22EF5073
:103F10007A0810E3200E146EDF50E76EFD0EDBCF43
:103F2000E9FFFE0EDBCFEAFFE750E926000EEA22AA
:103F30001450EF5EDF2ACBD7070EDBCFE9FFDB2A79
:103F4000080EDBCFEAFF01E3DB2AEF50E66EFB0E43
:103F5000DBCFE9FFFC0EDBCFEAFFE552E750EF6E67
:103F6000070EDBCFE9FFDB2A080EDBCFEAFF01E318
:103F7000DB2AEF50E66E010EE76EFB0EDBCFE9FFAA
:103F8000FC0EDBCFEAFFE750E926000EEA22E552FD
:103F9000E750EF6E070EDBCFE9FFDB2A080EDBCF21
:103FA000EAFF01E3DB2AEF50E66E020EE76EFB0E3E
:103FB000DBCFE9FFFC0EDBCFEAFFE750E926000E7E
:103FC000EA22E552E750EF6EDF6A030EDF5C32E271
:103FD000DF50E76EFB0EDBCFE9FFFC0EDBCFEAFF25
:103FE000E750E926000EEA22EFCF14F0610E145CD0
:103FF0001FE3DF50E76EFB0EDBCFE9FFFC0EDBCFEC
:10400000EAFFE750E926000EEA22EF507A0810E3B3
:10401000200E146EDF50E76EFB0EDBCFE9FFFC0EC7
:10402000DBCFEAFFE750E926000EEA221450EF5EEC
:10403000DF2ACBD7070EDBCFE9FFDB2A080EDBCF69
:10404000EAFF01E3DB2AEF50E66EF90EDBCFE9FF72
:10405000FA0EDBCFEAFFE552E750EF6E070EDB2AE0
:10406000080E01E3DB2A070EDB2A080E01E3DB2A38
:10407000070EDB2A080E01E3DB2A070EDB2A080EF7
:1040800001E3DB2A070EDB2A080E01E3DB2A070E19
:10409000DB2A080E01E3DB2A070EDB2A080E01E308
:1040A000DB2A070EDB2A080E01E3DB2A0001975109
:1040B0004DE0070EDBCFE9FFDB2A080EDBCFEAFF7E
:1040C00001E3DB2AEFCF14F0156A166A176A100EA7
:1040D0001F0B07E0D8901436153616361736E8064B
:1040E000F9E1F50EDBCFE9FFF60EDBCFEAFF14C0F6
:1040F000EEFF15C0EEFF16C0EEFF17C0EEFF070E75
:10410000DBCFE9FFDB2A080EDBCFEAFF01E3DB2A86
:10411000EFCF14F0156A166A176A180E1F0B07E026
:10412000D8901436153616361736E806F9E1F50E2E
:10413000DBCFE9FFF60EDBCFEAFF1450EE26155079
:10414000EE221650EE221750EE2214D0070EDB2A74
:10415000080E01E3DB2A070EDB2A080E01E3DB2A47
:10416000F50EDBCFE9FFF60EDBCFEAFFEE6AEE6A73
:10417000EE6AEE6A070EDB2A080E01E3DB2A070E61
:10418000DB2A080E01E3DB2A070EDB2A080E01E317
:10419000DB2A070EDB2A080E01E3DB2A070EDBCF42
:1041A000E9FFDB2A080EDBCFEAFF01E3DB2AEFCFD2
:1041B00014F0156A166A176AF50EDBCFE9FFF60EE2
:1041C000DBCFEAFF1450EE261550EE221650EE22F9
:1041D0001750EE22070EDBCFE9FFDB2A080EDBCFFC
:1041E000EAFF01E3DB2AEFCF14F0156A166A176ABB
:1041F0001F0B07E0D8901436153616361736E8062A
:10420000F9E1F50EDBCFE9FFF60EDBCFEAFF145044
:10421000EE261550EE221650EE221750EE22070E13
:10422000DBCFE9FFDB2A080EDBCFEAFF01E3DB2A65
:10423000EFCF14F0156A166A176AF70EDBCFE9FFA5
:10424000F80EDBCFEAFF14C0EEFF15C0EEFF16C07C
:10425000EEFF17C0EEFF070EDBCFE9FFDB2A080EEB
:10426000DBCFEAFF01E3DB2AEFCF14F0156A166A11
:10427000176A1F0B07E0D890143615361636173616
:10428000E806F9E1F70EDBCFE9FFF80EDBCFEAFF36
:104290001450EE261550EE221650EE221750EE2244
:1042A000070EDBCFE9FFDB2A080EDBCFEAFF01E3D5
:1042B000DB2AEFCF14F0156A166A176A100E1F0B6F
:1042C00007E0D8901436153616361736E806F9E1A9
:1042D000F70EDBCFE9FFF80EDBCFEAFF1450EE2636
:1042E0001550EE221650EE221750EE22070EDBCFAD
:1042F000E9FFDB2A080EDBCFEAFF01E3DB2AEFCF81
:1043000014F0156A166A176A180E1F0B07E0D8908A
:104310001436153616361736E806F9E1F70EDBCFF8
:10432000E9FFF80EDBCFEAFF1450EE261550EE221F
:104330001650EE221750EE22F20EDBCFE9FFF30EFD
:10434000DBCFEAFFA2C0EEFFA3C0EEFFA4C0EEFFEA
:10435000A5C0EEFFF00EDBCFE9FFF10EDBCFEAFFE9
:10436000A6C0EFFF8B84010E00D0146E090EE15C35
:1043700002E2E16AE552E16E1450E552E7CFD9FF5F
:104380001200D9CFE6FFE1CFD9FF020EE126A6C089
:1043900014F0A7C015F0050ED89014361536E804B1
:1043A000FBE1000E14260B0E152214C0DEFF15C013
:1043B000DDFFFD0EDBCFE9FFFE0EDBCFEAFFEF50A6
:1043C000E66EDFCFE9FFDF2A010EDBCFEAFF01E374
:1043D000DB2AE552E750EF6E010EE76EFD0EDBCFF4
:1043E000E9FFFE0EDBCFEAFFE750E926000EEA22E6
:1043F000EF50E66EDFCFE9FFDF2A010EDBCFEAFFE9
:1044000001E3DB2AE552E750EF6E020EE76EFD0E88
:10441000DBCFE9FFFE0EDBCFEAFFE750E926000E17
:10442000EA22EF50E66EDFCFE9FFDF2A010EDBCF95
:10443000EAFF01E3DB2AE552E750EF6E030EE76E79
:10444000FD0EDBCFE9FFFE0EDBCFEAFFE750E926EA
:10445000000EEA22EF50E66EDFCFE9FFDF2A010E01
:10446000DBCFEAFF01E3DB2AE552E750EF6E040EF3
:10447000E76EFD0EDBCFE9FFFE0EDBCFEAFFE75074
:10448000E926000EEA22EF50E66EDFCFE9FFDF2AD1
:10449000010EDBCFEAFF01E3DB2AE552E750EF6EC6
:1044A000050EE76EFD0EDBCFE9FFFE0EDBCFEAFF68
:1044B000E750E926000EEA22EF50E66EDFCFE9FF73
:1044C000DF2A010EDBCFEAFF01E3DB2AE552E750EA
:1044D000EF6E060EE76EFD0EDBCFE9FFFE0EDBCFC3
:1044E000EAFFE750E926000EEA22EF50E66EDFCF42
:1044F000E9FFDF2A010EDBCFEAFF01E3DB2AE55209
:10450000E750EF6E070EE76EFD0EDBCFE9FFFE0E04
:10451000DBCFEAFFE750E926000EEA22EF50E66E15
:10452000DFCFE9FFDF2A010EDBCFEAFF01E3DB2A61
:10453000E552E750EF6EFB0EDBCFE9FFFC0EDBCF61
:10454000EAFFEF50E66EDFCFE9FFDF2A010EDBCF97
:10455000EAFF01E3DB2AE552E750EF6E010EE76E5A
:10456000FB0EDBCFE9FFFC0EDBCFEAFFE750E926CD
:10457000000EEA22EF50E66EDFCFE9FFDF2A010EE0
:10458000DBCFEAFF01E3DB2AE552E750EF6E020ED4
:10459000E76EFB0EDBCFE9FFFC0EDBCFEAFFE75057
:1045A000E926000EEA22EF50E66EDFCFE9FFDF2AB0
:1045B000010EDBCFEAFF01E3DB2AE552E750EF6EA5
:1045C000F90EDBCFE9FFFA0EDBCFEAFFEF50E66E24
:1045D000DFCFE9FFDF2A010EDBCFEAFF01E3DB2AB1
:1045E000E552E750EF6EDFCFE9FFDF2A010EDBCFA8
:1045F000EAFF01E3DB2AEF6ADFCFE9FFDF2ADBCF47
:10460000EAFF01E3DB2AEF6ADFCFE9FFDF2ADBCF36
:10461000EAFF01E3DB2AEF6ADFCFE9FFDF2ADBCF26
:10462000EAFF01E3DB2AEF6ADFCFE9FFDF2ADBCF16
:10463000EAFF01E3DB2A210EEF6EDFCFE9FFDF2A7D
:10464000010EDBCFEAFF01E3DB2A280EEF6EDFCF9E
:10465000E9FFDF2A010EDBCFEAFF01E3DB2A210EAF
:10466000EF6EDFCFE9FFDF2A010EDBCFEAFF01E3C8
:10467000DB2A280EEF6EF50EDBCFE9FFF60EDBCF5F
:10468000EAFFEECF14F0EECF15F0EECF16F0EFCF3D
:1046900017F0100ED8901732163215321432E80681
:1046A000F9E1DFCFE9FFDF2A010EDBCFEAFF01E30B
:1046B000DB2A14C0EFFFF50EDBCFE9FFF60EDBCFF0
:1046C000EAFFEECF14F0EECF15F0EECF16F0EFCFFD
:1046D00017F0180ED8901732163215321432E80639
:1046E000F9E1DFCFE9FFDF2A010EDBCFEAFF01E3CB
:1046F000DB2A14C0EFFFDFCFE9FFDF2ADBCFEAFFC1
:1047000001E3DB2AEF6ADFCFE9FFDF2ADBCFEAFF35
:1047100001E3DB2AEF6ADFCFE9FFDF2ADBCFEAFF25
:1047200001E3DB2A210EEF6EDFCFE9FFDF2A010E66
:10473000DBCFEAFF01E3DB2A280EEF6EF50EDBCFBD
:10474000E9FFF60EDBCFEAFFEF50E66EDFCFE9FFC1
:10475000DF2A010EDBCFEAFF01E3DB2AE552E75057
:10476000EF6EF50EDBCFE9FFF60EDBCFEAFFEECF03
:1047700014F0EECF15F0EECF16F0EFCF17F0080ED5
:10478000D8901732163215321432E806F9E1DFCF2D
:10479000E9FFDF2A010EDBCFEAFF01E3DB2A14C0C9
:1047A000EFFFF70EDBCFE9FFF80EDBCFEAFFEF50AC
:1047B000E66EDFCFE9FFDF2A010EDBCFEAFF01E380
:1047C000DB2AE552E750EF6EF70EDBCFE9FFF80E7C
:1047D000DBCFEAFFEECF14F0EECF15F0EECF16F000
:1047E000EFCF17F0080ED890173216321532143268
:1047F000E806F9E1DFCFE9FFDF2A010EDBCFEAFFB0
:1048000001E3DB2A14C0EFFFF70EDBCFE9FFF80E60
:10481000DBCFEAFFEECF14F0EECF15F0EECF16F0BF
:10482000EFCF17F0100ED89017321632153214321F
:10483000E806F9E1DFCFE9FFDF2A010EDBCFEAFF6F
:1048400001E3DB2A14C0EFFFF70EDBCFE9FFF80E20
:10485000DBCFEAFFEECF14F0EECF15F0EECF16F07F
:10486000EFCF17F0180ED8901732163215321432D7
:10487000E806F9E1DFCFE9FFDF2A010EDBCFEAFF2F
:1048800001E3DB2A14C0EFFFA2C0E6FFA3C0E6FFEE
:10489000A4C0E6FFA5C0E6FF04EC35F0E552E55202
:1048A000E552E5528B84020EE15C02E2E16AE552D8
:1048B000E16EE552E7CFD9FF1200D9CFE6FFE1CF95
:1048C000D9FF060EE126FD0EDBCFE9FFFE0EDBCFA2
:1048D000EAFF140EE926000EEA22EF50010B06E172
:1048E000010E066E076A086A096ADBD0FD0EDBCF8F
:1048F000E9FFFE0EDBCFEAFFEECFE6FFEECFE6FFED
:10490000EECFE6FFEFCFE6FFF0EC33F0E552E552F5
:10491000E552E552FD0EDBCFE9FFFE0EDBCFEAFFED
:10492000040EE926000EEA22EF50146E156A050EF9
:10493000D89014361536E804FBE1000E14260B0E51
:104940001522140E1426000E1522040E14C0DBFFCF
:10495000050E15C0DBFF000197514FE0040EDBCFC1
:10496000E9FFDB2A050EDBCFEAFF01E3DB2AEFCF0D
:1049700014F0156A166A176A100E1F0B07E0D8901C
:104980001436153616361736E806F9E114C0DFFF7F
:10499000010E15C0DBFF020E16C0DBFF030E17C0B1
:1049A000DBFF040EDBCFE9FFDB2A050EDBCFEAFFDE
:1049B00001E3DB2AEFCF14F0156A166A176A180EA6
:1049C0001F0B07E0D8901436153616361736E80652
:1049D000F9E11450DE261550DE221650DE22175063
:1049E000DD22DD52DD52D950040FE96EDACFEAFF45
:1049F000040EEE26000EED220FD0DE6ADE6ADE6ABD
:104A0000DD6ADD52DD52D950040FE96EDACFEAFFDC
:104A1000060EEE26000EED22040EDBCFE9FFDB2AA8
:104A2000050EDBCFEAFF01E3DB2AEFCF14F0156AB6
:104A3000166A176A1450DE261550DE221650DE2242
:104A40001750DD22DD52DD52040EDBCFE9FFDB2AF9
:104A5000050EDBCFEAFF01E3DB2AEFCF14F0156A86
:104A6000166A176A080E1F0B07E0D8901436153621
:104A700016361736E806F9E11450DE261550DE2208
:104A80001650DE221750DD22DD52DD52DECF06F059
:104A9000DECF07F0DECF08F0DDCF09F0DD52DD52CA
:104AA00000D0060EE15C02E2E16AE552E16EE552F9
:104AB000E7CFD9FF1200D9CFE6FFE1CFD9FF260E0D
:104AC000E1260E01EE5102E1000E07D1D9500E0F82
:104AD000E66E000EDA20E66ED950060FE66E000E86
:104AE000DA20E66EFD0EDBCFE6FFFE0EDBCFE6FF43
:104AF000EFEC1AF0146E060EE15E1450000902E0AD
:104B0000000EEBD0F6D806C014F007C015F008C0B0
:104B100016F009C017F0FB0EDBCFE9FFFC0EDBCF70
:104B2000EAFF14C0EEFF15C0EEFF16C0EEFF17C07F
:104B3000EEFFFB0EDBCFE9FFFC0EDBCFEAFFE86800
:104B4000EE1808E1E868EE1805E1E868EE1802E101
:104B5000E868EE1803E18B84000EBFD0F70EDBCFC0
:104B6000E6FFF80EDBCFE6FFF90EDBCFE6FFFA0E2D
:104B7000DBCFE6FF010EE66ED950210FE66E000E88
:104B8000DA20E66ED950020FE66E000EDA20E66EED
:104B9000D9501C0FE66E000EDA20E66ED950190FC0
:104BA000E66E000EDA20E66ED950110FE66E000EAA
:104BB000DA20E66E86EC1CF0146E0F0EE15E1450E7
:104BC000000903E18B84000E88D0110EDB50E5084C
:104BD0003AE0110EDB5037E0F70EDBCFE6FFF80EC0
:104BE000DBCFE6FFF90EDBCFE6FFFA0EDBCFE6FF09
:104BF000E66AD950210FE66E000EDA20E66ED95033
:104C0000020FE66E000EDA20E66ED9501C0FE66E3B
:104C1000000EDA20E66ED950190FE66E000EDA208B
:104C2000E66ED950110FE66E000EDA20E66E86ECC5
:104C30001CF0146E0F0EE15E1450000903E18B842A
:104C4000000E4BD0C2D71D0EDB6A1E0EDB6A1F0E94
:104C5000DB6A200EDB6A250EDB6AFB0EDBCFE6FF8C
:104C6000FC0EDBCFE6FFD9501D0FE66E000EDA20FA
:104C7000E66ED950250FE66E000EDA20E66ED950AA
:104C80000E0FE66E000EDA20E66ED950060FE66EC5
:104C9000000EDA20E66EC1EC21F0146E0A0EE15E21
:104CA0001450E668E668E6680F0EE66EFB0EDBCF92
:104CB000E9FFFC0EDBCFEAFFEECFE6FFEECFE6FF2B
:104CC000EECFE6FFEFCFE6FFDEEC2AF0146E080E23
:104CD000E15E14508B84010E00D0146E260EE15C50
:104CE00002E2E16AE552E16E1450E552E7CFD9FFE6
:104CF0001200D9CFE6FFE1CFD9FF1C0EE126060E48
:104D00008BC0DBFF070E8CC0DBFF080E8DC0DBFF06
:104D1000090E8EC0DBFF0001975115E0D1CE14F0D3
:104D2000D2CE15F0D89015321432D89015321432F4
:104D3000120E14C0DBFF130E15C0DBFF140EDB6A6E
:104D4000150EDB6A11D0D1CE14F0D2CE15F0D8906A
:104D500015321432120E14C0DBFF130E15C0DBFF28
:104D6000140EDB6A150EDB6A99C006F09AC007F0D4
:104D70009BC008F09CC009F0120EDBCF0BF0130EA5
:104D8000DBCF0CF0140EDBCF0DF0150EDBCF0EF0E9
:104D9000D4EC3AF00A0E06C0DBFF0B0E07C0DBFFB7
:104DA0000C0E08C0DBFF0D0E09C0DBFFD950060F4B
:104DB000E96EDACFEAFF0A0EDB50EE260B0EDB506F
:104DC000EE220C0EDB50EE220D0EDB50EE220A0E10
:104DD000DBCF14F00B0EDBCF15F00C0EDBCF16F093
:104DE0000D0EDBCF17F014C006F015C007F016C08B
:104DF00008F017C009F0120EDBCF0BF0130EDBCF5B
:104E00000CF0140EDBCF0DF0150EDBCF0EF09CEC8A
:104E10003AF0160E02C0DBFF170E03C0DBFF180EC0
:104E200004C0DBFF190E05C0DBFFD950060FE96E89
:104E3000DACFEAFF00018B51EE5C146E00018C5159
:104E4000EE58156E00018D51EE58166E00018E5110
:104E5000EE58176E0A0E14C0DBFF0B0E15C0DBFFF9
:104E60000C0E16C0DBFF0D0E17C0DBFF9DC014F04B
:104E70009EC015F09FC016F0A0C017F01406000EDB
:104E8000155A000E165A000E175AD9500A0FE96E1D
:104E9000DACFEAFF1450EE5C1550EE581650EE587B
:104EA0001750EE5801E372D10400D950060FE96E95
:104EB000DACFEAFFEECFE6FFEECFE6FFEECFE6FF7A
:104EC000EFCFE6FFF0EC33F0E552E552E552E55264
:104ED000D9501A0FE96EDACFEAFF000EEE6E0B0E14
:104EE000ED6E0E0EDB6A0F0EDB6A100EDB6A110E22
:104EF000DB6A120EDBCF14F0130EDBCF15F0140EAD
:104F0000DBCF16F0150EDBCF17F0D9500E0FE96E80
:104F1000DACFEAFF1450EE5C1550EE581650EE58FA
:104F20001750EE5801E31DD10001975101E1A0D0C7
:104F30001A0EDBCFE9FFDB2A1B0EDBCFEAFF01E312
:104F4000DB2AEFCF14F0020E14C0DBFF030EDB6A86
:104F5000040EDB6A050EDB6A1A0EDBCFE9FFDB2AE3
:104F60001B0EDBCFEAFF01E3DB2AEFCF14F0156A5B
:104F7000166A176A080E1F0B07E0D890143615360C
:104F800016361736E806F9E1D950020FE96EDACF86
:104F9000EAFF1450EE121550EE121650EE12175092
:104FA000EE121A0EDBCFE9FFDB2A1B0EDBCFEAFF86
:104FB00001E3DB2AEFCF14F0156A166A176A100EA8
:104FC0001F0B07E0D8901436153616361736E8064C
:104FD000F9E1D950020FE96EDACFEAFF1450EE1270
:104FE0001550EE121650EE121750EE121A0EDBCFBD
:104FF000E9FFDB2A1B0EDBCFEAFF01E3DB2AEFCF61
:1050000014F0156A166A176A180E1F0B07E0D8907D
:105010001436153616361736E806F9E1D950020F60
:10502000E96EDACFEAFF1450EE121550EE12165068
:10503000EE121750EE12D950020FE96EDACFEAFFE6
:10504000EE52EE52EE520F0EEE16020EDBCF14F0C1
:10505000030EDBCF15F0040EDBCF16F0050EDBCF11
:1050600017F0145015101610171001E194D03AD013
:105070001A0EDBCFE9FFDB2A1B0EDBCFEAFF01E3D1
:10508000DB2AEFCF14F0156A166A176A14C0DEFF28
:1050900015C0DDFF1A0EDBCFE9FFDB2A1B0EDBCFCD
:1050A000EAFF01E3DB2AEFCF14F0156A166A176AEC
:1050B000080E1F0B07E0D890143615361636173633
:1050C000E806F9E1D9CFE9FFDACFEAFF1450EE1292
:1050D0001550ED12D9CFE9FFDACFEAFFEE50ED100F
:1050E00001E159D0D950160FE96EDACFEAFFEE2A66
:1050F000000EEE22EE22EE220001975114E0D9506C
:10510000160FE96EDACFEAFFF70EEE5CFF0EEE58EF
:10511000FF0EEE580F0EEE5805E3066807680868A4
:1051200009685AD013D0D950160FE96EDACFEAFFCA
:10513000F70EEE5CFF0EEE58000EEE58000EEE5825
:1051400005E3066807680868096846D0D9500E0F5D
:10515000E96EDACFEAFFEE2A000EEE22EE22EE2210
:10516000C8D6D950060FE96EDACFEAFFEE2A000E54
:10517000EE22EE22EE22D9500A0FE96EDACFEAFFD4
:10518000EE2A000EEE22EE22EE2270D606680768A6
:105190000868096821D0160EDBCF99F0170EDBCF17
:1051A0009AF0180EDBCF9BF0190EDBCF9CF0160E99
:1051B000DBCF14F0170EDBCF15F0180EDBCF16F097
:1051C000190EDBCF17F014C006F015C007F016C09B
:1051D00008F017C009F000D01C0EE15C02E2E16AA1
:1051E000E552E16EE552E7CFD9FF1200D9CFE6FFD5
:1051F000E1CFD9FF100EE126060E8BC0DBFF070EB4
:105200008CC0DBFF080E8DC0DBFF090E8EC0DBFFFC
:105210000001975115E0D1CE14F0D2CE15F0D89000
:1052200015321432D89015321432000E14C0DFFF3C
:10523000010E15C0DBFF020EDB6A030EDB6A11D024
:10524000D1CE14F0D2CE15F0D89015321432000E13
:1052500014C0DFFF010E15C0DBFF020EDB6A030E78
:10526000DB6AFB0EDBCF14F0FC0EDBCF15F0FD0E7E
:10527000DBCF16F0FE0EDBCF17F014C006F015C022
:1052800007F016C008F017C009F0DFCF0BF0010ED1
:10529000DBCF0CF0020EDBCF0DF0030EDBCF0EF0F8
:1052A000D4EC3AF00A0E06C0DBFF0B0E07C0DBFFA2
:1052B0000C0E08C0DBFF0D0E09C0DBFFD950060F36
:1052C000E96EDACFEAFF0A0EDB50EE260B0EDB505A
:1052D000EE220C0EDB50EE220D0EDB50EE220A0EFB
:1052E000DBCF18F00B0EDBCF19F00C0EDBCF1AF072
:1052F0000D0EDBCF1BF018C006F019C007F01AC066
:1053000008F01BC009F0DFCF0BF0010EDBCF0CF073
:10531000020EDBCF0DF0030EDBCF0EF09CEC3AF06B
:1053200002C014F003C015F004C016F005C017F059
:10533000D950FB0FE96EFF0EDA20EA6E1450EE5ED4
:105340001550EE5A1650EE5A1750EE5AD950060F15
:10535000E96EDACFEAFFEECFE6FFEECFE6FFEECF63
:10536000E6FFEFCFE6FFF0EC33F0E552E552E55211
:10537000E5520001975101E1A7D0FB0EDBCF16F0FB
:10538000FC0EDBCF17F0FD0EDBCF18F0FE0EDBCFEF
:1053900019F0020E1F0B07E0D89016361736183694
:1053A0001936E806F9E1000E1624146E0B0E1720CC
:1053B000156E0E0E14C0DBFF0F0E15C0DBFF0E0EB8
:1053C000DBCFE9FFDB2A0F0EDBCFEAFF01E3DB2AAD
:1053D000EFCF14F0060E14C0DBFF070EDB6A080ED9
:1053E000DB6A090EDB6A0E0EDBCFE9FFDB2A0F0E4C
:1053F000DBCFEAFF01E3DB2AEFCF14F0156A166A70
:10540000176A080E1F0B07E0D890143615361636AB
:105410001736E806F9E1D950060FE96EDACFEAFF50
:105420001450EE121550EE121650EE121750EE12E6
:105430000E0EDBCFE9FFDB2A0F0EDBCFEAFF01E325
:10544000DB2AEFCF14F0156A166A176A100E1F0BCD
:1054500007E0D8901436153616361736E806F9E107
:10546000D950060FE96EDACFEAFF1450EE1215504C
:10547000EE121650EE121750EE120E0EDBCFE9FFB1
:10548000DB2A0F0EDBCFEAFF01E3DB2AEF500F0B25
:10549000146E156A166A176A180E1F0B07E0D8906B
:1054A0001436153616361736E806F9E1D950060FC8
:1054B000E96EDACFEAFF1450EE121550EE121650D4
:1054C000EE121750EE125BD0FB0EDBCF16F0FC0E87
:1054D000DBCF17F0FD0EDBCF18F0FE0EDBCF19F09F
:1054E000010E1F0B07E0D8901636173618361936FE
:1054F000E806F9E1000E1624146E0B0E1720156E47
:105500000E0E14C0DBFF0F0E15C0DBFF0E0EDBCF3F
:10551000E9FFDB2A0F0EDBCFEAFF01E3DB2AEFCF47
:1055200014F0060E14C0DBFF070EDB6A080EDB6A00
:10553000090EDB6A0E0EDBCFE9FFDB2A0F0EDBCF95
:10554000EAFF01E3DB2AEFCF14F0156A166A176A47
:10555000080E1F0B07E0D89014361536163617368E
:10556000E806F9E1D950060FE96EDACFEAFF1450E8
:10557000EE121550EE121650EE121750EE12060EE5
:10558000DBCF14F0070EDBCF15F0080EDBCF16F0E3
:10559000090EDBCF17F014C006F015C007F016C0D7
:1055A00008F017C009F0100EE15C03E200D0E16AD8
:1055B000E552E16EE552E7CFD9FF1200D9CFE6FF01
:1055C000E1CFD9FF110EE126100EDB6A8BC0DFFFA1
:1055D000010E8CC0DBFF020E8DC0DBFF030E8EC000
:1055E000DBFF0001975115E0D1CE14F0D2CE15F0BB
:1055F000D89015321432D89015321432070E14C0D8
:10560000DBFF080E15C0DBFF090EDB6A0A0EDB6A42
:1056100011D0D1CE14F0D2CE15F0D890153214326C
:10562000070E14C0DBFF080E15C0DBFF090EDB6A96
:105630000A0EDB6AFB0EDBCF14F0FC0EDBCF15F09D
:10564000FD0EDBCF16F0FE0EDBCF17F014C006F018
:1056500015C007F016C008F017C009F0070EDBCF21
:105660000BF0080EDBCF0CF0090EDBCF0DF00A0EAD
:10567000DBCF0EF0D4EC3AF00C0E06C0DBFF0D0EC3
:1056800007C0DBFF0E0E08C0DBFF0F0E09C0DBFFFB
:10569000D9CFE9FFDACFEAFF0C0EDB50EE260D0E74
:1056A000DB50EE220E0EDB50EE220F0EDB50EE2210
:1056B0000C0EDBCF18F00D0EDBCF19F00E0EDBCF8A
:1056C0001AF00F0EDBCF1BF018C006F019C007F060
:1056D0001AC008F01BC009F0070EDBCF0BF0080E54
:1056E000DBCF0CF0090EDBCF0DF00A0EDBCF0EF096
:1056F0009CEC3AF002C014F003C015F004C016F0A0
:1057000005C017F0D950FB0FE96EFF0EDA20EA6EE4
:105710001450EE5E1550EE5A1650EE5A1750EE5ACF
:10572000010EF36E060EF3CFDBFF100EF36E060EC6
:10573000DBCFF4FFF350F45C01E32ED1060EDB5017
:105740000001A11501E113D1100EDB5001E0FDD0E5
:10575000010EF36E100EF3CFDBFFD9CFE9FFDACFE6
:10576000EAFFEECFE6FFEECFE6FFEECFE6FFEFCFAC
:10577000E6FFF0EC33F0E552E552E552E552000168
:10578000975123E0FB0EDBCF16F0FC0EDBCF17F0BA
:10579000FD0EDBCF18F0FE0EDBCF19F0020E1F0B53
:1057A00007E0D8901636173618361936E806F9E1AC
:1057B000000E1624146E0B0E1720156E040E14C066
:1057C000DBFF050E15C0DBFF22D0FB0EDBCF16F092
:1057D000FC0EDBCF17F0FD0EDBCF18F0FE0EDBCF9B
:1057E00019F0010E1F0B07E0D89016361736183641
:1057F0001936E806F9E1000E1624146E0B0E172078
:10580000156E040E14C0DBFF050E15C0DBFFF70E8E
:10581000DBCF14F0F80EDBCF15F0F90EDBCF16F06E
:10582000FA0EDBCF17F01450E66E040EDBCFE9FF63
:10583000DB2A050EDBCFEAFF01E3DB2AE552E75066
:10584000EF6E146A1568166A176AD950F70FE96E79
:10585000FF0EDA20EA6EEE501416EE501516EE50DA
:105860001616EE501716080ED8901732163215324B
:105870001432E806F9E1040EDBCFE9FFDB2A050E5E
:10588000DBCFEAFF01E3DB2A14C0EFFF00019751F1
:105890005CE0146A156A1668176AD950F70FE96E4A
:1058A000FF0EDA20EA6EEE501416EE501516EE508A
:1058B0001616EE501716100ED890173216321532F3
:1058C0001432E806F9E1040EDBCFE9FFDB2A050E0E
:1058D000DBCFEAFF01E3DB2A14C0EFFF040EDBCFCE
:1058E000E9FF050EDBCFEAFFEF50F00BE76E0B0E82
:1058F000E7CFDBFF146A156A166A0F0E176ED950D0
:10590000F70FE96EFF0EDA20EA6EEE501416EE5035
:105910001516EE501616EE501716180ED8901732B0
:10592000163215321432E806F9E10B0EDB50141072
:10593000E66E040EDBCFE9FFDB2A050EDBCFEAFFC4
:1059400001E3DB2AE552E750EF6ED9CFE9FFDACF6A
:10595000EAFFEECFE6FFEECFE6FFEECFE6FFEFCFBA
:10596000E6FF04EC35F0E552E552E552E552D9CFB9
:10597000E9FFDACFEAFF00019D51EE269E51EE22AB
:105980009F51EE22A051EE22060EDBCFF3FFF39ED5
:10599000F346F3CFDBFFC9D6110EE15C02E2E16A08
:0C59A000E552E16EE552E7CFD9FF12009E
:0459AC00D9CFE6FF6A
:1059B000E1CFD9FF180EE1260E01E951040A01E1F9
:1059C00086D0070A64E0010A51E0030A35E0010AC3
:1059D00003E0E96BD0EF33F08B848B808B820E0178
:1059E000EE6B040EDB6A020EF36E040EDBCFF4FFE7
:1059F000F350F45C13E2040EDB50160DF3CFE9FF15
:105A0000F4CFEAFFA50EE9260E0EEA22140EE926CF
:105A1000000EEA22EF90040EDB2AE5D7DAEC33F031
:105A2000000902E1D0EF33F00E01320EEF6F0E01EC
:105A3000010EE96FD0EF33F0DAEC33F0000904E146
:105A40000E01E96BD0EF33F00E01EF5102E0D0EF21
:105A500033F0010EE66EE2EC33F0E5528A8A0E0175
:105A6000020EEF6F0E01E96FD0EF33F00E01EF5130
:105A700002E0D0EF33F0E66AE2EC33F0E5520E01DB
:105A8000320EEF6F0E01030EE96FD0EF33F00E010F
:105A9000EF5102E0D0EF33F0DAEC33F0000904E12B
:105AA0000E01E96BD0EF33F00E01040EE96F0E0129
:105AB000EE6B8B94060EE66ED3EC35F0E552E66A9B
:105AC00010EC36F0E55200090EE1CCEF33F0DAECE1
:105AD00033F0000902E0D0EF33F00E01EE6B0E015F
